:10EFF500B4110512F3008016B4120512F311800E38
:0EF00500B4130512F3228006B4140312F33381
:10F3000090047DE09004F0F090047EE09004F1F031
:10F310002290047DE09004F2F090047EE09004F3EB
:10F32000F02290047DE09004F4F090047EE09004DC
:10F33000F5F0227FB412EAA990047DE0FF12EAA959
:10F34000719B801B71F27F6712C8009002F5E05438
:10F350000103F5F0A3E054FE0345F0FF12EAA99083
:10F36000047DE0C39401400DF071BC717671BC71F5
:10F37000DA71CB80CF227F39E8FDE9FB12E63871E4
:10F38000BC7F38EAFD12E6387F307D007B0012E654
:10F39000387F307DBF7BF112E638229004F0E09098
:10F3A00004F6F09004F1E09004F7F09004F2E0909D
:10F3B00004F8F09004F3E09004F9F0229004F6E0F1
:10F3C000F8A3E0F9A3E0FAA3E0FB229004F6E8F04A
:10F3D000A3E9F0A3EAF0A3EBF0229004F4E0FCA38D
:10F3E000E0FDC3EB2DFBEA3CFAE93400F9E8340018
:0FF3F000F8227840C374FF00940150FBD8F62236
:00000001FF
