:10EFF500B4110512F3008016B4120512F311800E38
:0EF00500B4130512F3228006B4140312F33381
:10F3000090047DE09004F0F090047EE09004F1F031
:10F310002290047DE09004F2F090047EE09004F3EB
:10F32000F02290047DE09004F4F090047EE09004DC
:10F33000F5F0227FB412EAA990047DE0FF12EAA959
:10F34000801B71CF7F6712C8009002F5E054010363
:10F35000F5F0A3E054FE0345F0FF12EAA990047D06
:10F36000E0C39401400DF071997174719971B77196
:10F37000A880CF227F39E8FDE9FB12E63871997F3A
:10F3800038EAFD12E6387F307D007B0012E6387FD8
:10F39000307DBF7BF112E638229004F0E0F8A3E064
:10F3A000F9A3E0FAA3E0FB229004F0E8F0A3E9F06F
:10F3B000A3EAF0A3EBF0229004F4E0FCA3E0FDC389
:10F3C000EB2DFBEA3CFAE93400F9E83400F8227846
:0CF3D00040C374FF00940150FBD8F622EB
:00000001FF
