:030000000208CA29
:0C08CA00787FE4F6D8FD75810702080075
:10080000759AFF75A1DD75A2C675A3EF75A4FE7577
:10081000A5FD75800F75900275A040E4F5B075C018
:04082000B175D820B6
:10082400900000120899000000009000001208993E
:10083400000000007FE07E937D047C00900000E0D7
:10084400F8A3E0F9A3E0FAA3E0FBC312087C50216B
:10085400900000E0FCA3E0FDA3E0FEA3E02401FF80
:10086400E43EFEE43DFDE43CFC90000012088D8073
:06087400C3A2B5B392B56A
:02087A0080A854
:10087C00EB9FF5F0EA9E42F0E99D42F0E89C45F0D2
:01088C002249
:0C088D00ECF0A3EDF0A3EEF0A3EFF022DE
:10089900A8828583F0D083D0821208B01208B012E2
:1008A90008B01208B0E473E493A3C583C5F0C58307
:1008B900C8C582C8F0A3C583C5F0C583C8C582C8A9
:0108C900220C
:00000001FF
