:10104E0044540043540044520043520000800000B8
:10105E000000FE05371D0F140019492A387B842025
:10106E007DE94C7E302E2E02044034F12A4F182892
:10107E00563829AB243100004760401FA6561E4C3F
:10108E00583EA03734000035000033BD004DA02976
:10109E004E6F2253E66E7788EF09006F09106B09C9
:1010AE00206709306209405009504709603A0970BB
:1010BE002C09804109903709A02509B01709C0E411
:1010CE0009D0CB09E0B509F09FFF371D0F020000D4
:1010DE00292B2475E1025490095531A948B2A82153
:1010EE0006D8248C7E3F0800FF371D0F24000047D2
:1010FE0061401303BE4A5450310000286B0029ABE7
:10110E002474E1024491094532A9371D0F52031090
:10111E00300000700000710000720000FF03AD028D
:10112E00B902B902B90302030203020354035403C2
:10113E005402B90302035403AD03AD03AD053804E5
:10114E00B9053805C504B9053805C504B90538050E
:10115E00C5066106610661066104B905C557697267
:10116E00656C6573730053656E64005265636569E3
:10117E007665004D20537461727400582053746F5D
:10118E00702F45786974007000E07230655800C1A8
:10119E005C56655DA000FF3F0000590068FE0330FD
:1011AE000000FE140200003F0000371F0F30000049
:1011BE0030BFF13F3000594068593068FF3F800022
:1011CE00598068590068FE19FF00000013001500D1
:1011DE00160019001A001E002300270029002B00FC
:1011EE002C00350039003A003B003C004C004D000D
:1011FE004E005200550059005A005C006300650015
:10120E006A006D006E00720075007A007C00850029
:10121E008A00930095009600A300A400A500A600E6
:10122E00A900AA00AD00B100B300B500B600B90028
:10123E00BC00C600C900CD00D500D900DA00E3001D
:10124E00E600E900EE00F400F500F90109010A01DB
:10125E000B01130119011A01250126012A012C0186
:10126E002D013201340135013601430146014E0193
:10127E00530156015A016601750186018A019401D6
:10128E00970199019A01AC01B201B401C301CA01DF
:10129E00D301D901DA01DC01E301EC0000029E0268
:1012AE00B502CF02E80302031D033903560375038B
:1012BE009303B403CE03E8040B04300455047C04FA
:1012CE00A404CE04F905260555058505B605EA06DE
:1012DE001F063E06560677068F06B106CA06ED07AE
:1012EE0007072B0746076B078807AE07CB07F308E0
:1012FE0011083B088508D108F30920097209C709AE
:10130E00ED0567059605CC06000635066D06A706A3
:10131E00E30723076107A507DB0810085908A5088E
:10132E00F10942099509EB0A440AA10B020B650B60
:10133E00CA0C360CA30CE30D150D590D8A0DD10EEA
:10134E00040E4C0E820ECC0F040F510F8D0FDB10BE
:10135E0017106910A710FE11971234127A12D713B4
:10136E00801430147E2020202020202020202020B9
:10137E00200007BFA47F2AAB49246800871CA666FD
:10138E00C5D1E5550003BFBF080600000066C008C2
:10139E0008010003B7C0100802001B774007BFA466
:1013AE00800B02165316141341240024260000004D
:1013BE0000090C1726091D2437094E096709011764
:1013CE00467147010A131C2568000B02002D000010
:1013DE0000EDB88320A46DD82F821003E0FFE0FA51
:1013EE0094F80007E069BFFFE0FA946B4DFFFAD363
:1013FE005F000083F0FB20FFFF000F01420000FAA8
:10140E008F2BFFFBF47BEFA2FFDB7F1155704F128A
:10141E0025A000FB45F9293BE7F8E7FFFFFFE000B9
:10142E00DBBA00042C1D8054580052580053544E01
:10143E000044544D46005363616E20004163747640
:10144E00200020464D0020414D0055534200464D90
:10145E0054004E2F52004F6666004F6E004E6F00C6
:10146E005965730057696465004E6172726F77003B
:10147E004175746F004E2F41004475616C005369C5
:10148E006E676C65004879627269640049636F6EBD
:10149E000050657263656E7400566F6C7473004411
:1014AE006966666572656E7469616C00566F696314
:1014BE006500426F74680041474300536F6C696466
:1014CE00005365676D656E74005374657070656466
:1014DE000043616E63656C00435243004F4B200026
:1014EE0042414400492D434F5300506F776572209F
:1014FE004F6E00436C6F6E6500426F5400456F5423
:10150E0000382E343600372E323500362E33350065
:10151E00352E363400352E303800342E3632003427
:10152E002E32330003BE0000000800100001000937
:10153E0000110002000A00120003000B0013000449
:10154E00000C000D001C001D001E001F003E003F81
:10155E00005E005F007E007F009F00BF00DF00FF87
:10156E0001DF01FF02BF02DF02FF035E035F037EA6
:10157E00037F038F03BF03DF03FF1E05051EF8A8BD
:10158E00A8503C5A999999995A3C000C027FF0F058
:10159E00E0000081C3E77E3C180070381C0E0E1C64
:1015AE0038700E1C387070381C0E0C9EDE7E3E1E7F
:1015BE001E0C3E413E08087808780E11A0C7E305C0
:1015CE00887070784C464C7870007F06187F3E41CC
:1015DE00413E7E09097E7E09097E824428FE92AA3A
:1015EE0044000000000000000000007E7E00007E2F
:1015FE007E0007080B000E090D03060210FFFF0107
:10160E00040C14050F000E0A0D11121310FFFF012A
:10161E00040C00080400C3AD60004012000000007E
:10162E000000000000000000000000000000001993
:10163E002A11B0422A11B831C0002A91940000A894
:10164E00C400F7CF1214806F4608008606610000B2
:10165E00109E23C804060E1C5363616E20507265E3
:10166E0073657473006B487A0055533A0050322DEF
:10167E002D2D37373732323C3746464B82826E82BB
:10168E00469664466E786E87649696469B918282E5
:10169E00737864826E7882876E557864699B5A502F
:1016AE003C32556464503646464B4B5050554B4B6E
:1016BE00323232323741323C374E2F5420005646AA
:1016CE004F2D25004752502D250043482525250036
:1016DE005363616E6E696E672020200041637469EA
:1016EE0076697479202020004D6F6E69746F72696F
:1016FE006E6720004672657120436F756E74200010
:10170E00000000FDFE64FCFE64FDFE96FB11FE78FB
:10171E00FBB1023536FBB2023536FBB3023536026B
:10172E003536FBB403FBC0A20284FBC1C5FBC20D60
:10173E0000FBC38DEAFBC48DEEFBC51AFB3680FBA6
:10174E00E0031B090E322D282C2B29303B00010201
:10175E0010FBE1031B090E322E282C2B28313C00E6
:0E176E00010210FB3A05FB29FE32FF000000CD
:0C9663004104C6FF41013EFF4102B4FF7C
:10000E00900A8DE4F07408A3F07A1379FF788F7C50
:10001E000A7D017BFF7E007F0202184C121CB490F9
:10002E000A56121C5C9002B5121CB490054C740555
:10003E00F0149004AEF07B017A00790422EFF09078
:10004E000663E075F013A42490F582E43406F5837C
:10005E00E022121C5C900663E0FBC43354E0240CD7
:10006E00F582E43405F58322E0FFE4FCFDFE900208
:10007E00B5121CB474FF90054CF09004AE2290069D
:10008E0063E0FDC43354E02419F582E43405F583AE
:10009E0022900663E0C43354E0241BF582E4340559
:1000AE00F583E022EFF0E075F020A4240CF974053E
:1000BE0035F0FA7B0122900A8DE4F07408A3F078F3
:1000CE008F7C0A7D017B0122121CB4900296121CB9
:1000DE005C900663E0C43354E02410F582E43405EA
:1000EE00F58322900A6CE02F900A7DF0787E7C0AD0
:1000FE007D017BFF22900305E075F007A42492F9A1
:10010E00741335F0FA7BFF900A8D121D449000FD9A
:10011E00E0900A90F09000FFE0900A91F078927CC7
:10012E000A7D0122900A6CE02F900A7DF0787E7C89
:10013E000A7D017BFF22900663E0FF75F013A42475
:10014E007EF582E43406F58322EF1218EC9000015E
:10015E0012188B75F00AA42466F9740135F0FA2290
:10016E00900A65121D3B900A68E0FF04F08F8275BD
:10017E00830002188B9013FFE493FF740193900495
:10018E00A1CFF0A3EFF022900A3AE0FF75F00AA497
:10019E0024C3F582E43402F583E022900A4A121D4C
:1001AE003B0218727428900A54F078557C0A7D012F
:1001BE007BFF22900A5DE0FF24B1F582E43404F562
:1001CE008322E075F00AA424BAF9740235F0FA22FB
:1001DE00900A7D121D44900A8022121872900A9184
:1001EE00F07A1379997BFF900A8D121D44900A9034
:1001FE0022900663E075F00AA424BEF582E4340270
:10020E00F583E022787C7C0A7D017BFF22900ACA6E
:10021E00E054FCF078E87C0A7D017BFF22900A8D89
:10022E00E4F0A322900A5A121D3B900004021BEE2A
:10023E009004E5F09004E4E0FCA3E0FD22121C1E05
:10024E00900A6C121D3B021BCE900663E0C4335421
:10025E00E02416F582E43405F583227A0479E97BED
:10026E0001900AC37420F022900A6CE02F900A7D50
:10027E00F0900A66021D3B9004B0E0243FF582E444
:10028E003402F5832225E024D7F582E43411F58378
:10029E00E493FE740193FF22121CB4900296021C8A
:1002AE005C900A65121D3B121C94C3021B839002C4
:1002BE00FB121C5C90029C121C78C3021B83900ADA
:1002CE0062121D3B90000302188B900114E0C433A0
:1002DE0054E02414F582E43405F58322EF75F0041E
:1002EE00A42417F9740735F0FA7B0122EFF0A3ED81
:1002FE00F0A3EBF022900663E075F013A4247FF5D3
:10030E0082E43406F5832290015FE0246BF582E4EB
:10031E003402F583227B017A06795E900AC3F022BD
:10032E00121D3B90000102188B900ACAE075F02056
:10033E00A4FFAEF022900A7D121D44900A80221274
:10034E001C5CE47B0AFAF9F822E4FCFD021CB49072
:10035E000A5F121D3B90000F12188BFFC41322FE72
:10036E00E43DFDE43CFC021CB4AC060E74042CF51A
:10037E0082E43400F58322EB25E025E02426F58285
:10038E00E43400F58322FFE5F0F0A3EFF022EF2531
:10039E00E024A9F582E43412F583E493FC7401930E
:1003AE00FD900AF1E0FAA3E0FB22900A8D121D3BAC
:1003BE0090000422E075F00AA424BBF582E4340216
:1003CE00F583E02290029AE0FEA3E0FF7C00121972
:1003DE0020900A3EEEF0A3EFF022EFF0900663E0DD
:1003EE00FF22121BCE9004D0121C78021A31121D5D
:1003FE003B1219A1FFAEF022121D3B900005021810
:10040E008B900A71121CB4900A71021C5C121D3B77
:10041E008D82758300EF0218EC9013B7E493FF22E0
:10042E00121D3B90000902188B900162E0FEA3E0C2
:10043E00FF224CFFEDCF900AA5F0A3EFF0900AA596
:10044E00E0229013B6E49324F82278B07C0A7D0162
:10045E007B01227B01900AC37401F0229002A0F06E
:10046E009002A6E022128EB3900A62021D3B121D6C
:10047E00440218729004A4021CB4FFE5F0C4F854B0
:10048E00F0C8EFC4540F48540F22121C5C90029611
:10049E00021CB4E02F900A55F09013B4E493FB9035
:1004AE000A567404F07D05FF227D0C7E007C00024E
:1004BE00190E900664E0FEA3E0FFE4FCFD22900618
:1004CE0063E075F00AA424C0F582E43402F583E0FB
:1004DE0024FF22EB25E024D7F582E43411F58322A4
:1004EE00900A807405F0D2089013B4E493FD229024
:1004FE00049C121C5C90029C121C78D3021B83C2BB
:10050E00097B017A02793F22E493FE740193FF2264
:10051E00121C5CEF2488FFEE3413FEE43DFDE43C38
:10052E0022121C5C75F004EB900717021D2FFFEBD7
:10053E00CF900A6EF0A3EFF02275F00AA4246FF5A7
:10054E0082E43401F583E05407640522E0FEA3E063
:10055E00FF7C0002190E900A6C021D3B121C5C906F
:10056E00029C021CB4900A6CE02FFB22900A4BE016
:10057E00FFE4FCFDFE9002FF121C78021A4C74017F
:10058E00F0FB7A007906C209C20A22900A65E0FEE3
:10059E00A3E0AC06FD22900A4F121D3BE92414F98C
:1005AE00E43AFA22901380121C84C3021B83900A31
:1005BE008A121D3B900A8DE0227B107A27E4F9F80F
:1005CE00021AD7EF24FFFFEE34FFFEED34FFFDECF1
:1005DE0034FFFC2224FF92089013BAE493FD22907C
:1005EE000A3EE0FEA3E0FF7C007D0A021920900285
:1005FE0062E0FFD20522900A65121CB4900A6502D1
:10060E001C5C9002B5021CB49002B9E0640422E0B6
:10061E002F900A7DF0787E7C0A7D01227B017A0282
:10062E00799C22745F900A55F0A37402F022900A0E
:10063E00BD7420F022121D3BE92404F9E43AFA229B
:10064E0075F002A4240CF9740335F0FA7B012275BF
:10065E00F00AA424BAF582E43402F583E022744051
:10066E002EF582E43402F583222430F582E434023E
:10067E00F58322EC900A71021CB4121C5C78010204
:10068E001B94C43354E02418F582E43405F5832218
:10069E00F090013974FFF02278A57C0A7D017B0170
:1006AE0022900665E02FFF900664E03400FE22F0F3
:1006BE009013B5E493FF22121D3BAF0190023BEA6B
:1006CE00F0A3EFF02290000802188B121D44900A3E
:1006DE004D021D3B7401F0FB7A007904C209C20A77
:1006EE0022E025E02450F582E43405F583227B01D7
:1006FE00A3021D447B017A02796522900A6D121CB9
:10070E005CE42FFFEE340822121C5CEF5401FFE470
:10071E00FEFDFCEF2290142D021C689002B27401B3
:10072E00F022900A37E0FF04F0EF90171193221297
:10073E001C78900A42121C5C021A31900A68121C34
:10074E00B4900A68021C5CE0FEA3E0FF7C037DE827
:10075E00021DCE90000D0219CCA3F09002A6E0224D
:10076E0090023BE0FEA3E0AA06F97B002290030C68
:10077E00121D2FECF0A3EDF0227C007D0AAF03AE2C
:10078E0002021920D280C2A702964DD2A7C2A6029B
:10079E00964D900A4A121D3BEF22900A6AE02404FD
:1007AE00FF22900A3A74FFF0A322121CB4A200E4B6
:1007BE00FE33780222FDE0C313A3E01322EF25E0FF
:1007CE0024A9F582E43412229013A7121C84D302BA
:1007DE001B83900A7D121D3B900A80E022F090024E
:1007EE00B474FEF022900700F09002B174FFF02274
:1007FE009004D0021CB4900005742EF090000722D5
:10080E00900A68021C5C900A62021D3B900008026E
:10081E0019CC24DCF582740422C2C37F057E00222B
:10082E00900A56021D3BE033333354F8227B0112FB
:10083E001D44E4227B017A0A79CA22900663E0FF06
:10084E00900114E022900A69121CB4900A6B22FFE8
:10085E00900663E0FE227406F07BFF7A13797A220B
:10086E00900A41021CB4900663E064012290066A6D
:10087E00E064012290029C021C5C9013BDE493FF85
:10088E00222FF09013BCE493240C22EE3395E0FD5E
:10089E00FC22759AFF75A24602964D788F7C0A7DD2
:1008AE00012290013AE0540F22900296021C78FF2A
:1008BE00900663E0FD22900A57021D3B90050B74D3
:1008CE0002F022900A56021C5C129513021872F066
:1008DE00900A5EE0900A7DF0229013D7E493900A7E
:1008EE006DF02235F0FA021D44900AA5121D3B90C0
:0308FE000AAF221C
:10936D009013E312029E900117E0B50608A3E0B535
:08937D0007037F01227F00229B
:106A0300900A65121D4412936DEF6034E4900A6896
:106A1300F0900A68E01201611206FC121BCE12020A
:106A2300AF4011900A691202351202AF5006900A64
:106A330068E0FF22900A68E004F0E0B414D38040D9
:106A43007B017A027924900A69121D44900A691223
:106A53001D3BE92409F9E43AFA121872448012182A
:106A6300DA54C744081218DA54F81218DA54BF1269
:106A730018DA900A69121D3B90000874FF1218EC93
:036A83007F13225C
:10885700E4900A37F0900A37E0FF64146021EF12C2
:1088670001611206FC1204315407FFBF0509900A83
:1088770037E09004ABF022900A37E004F080D690FE
:0688870004AB74FFF022B7
:109166001204311313135407FF30E205540304FFAE
:0E91760022ED6002FF22EF600280027F0122E4
:108EB3001204315407FFB40502E4FFEFD3940240D8
:108EC30005EF9403FF22EF60011FEDD394014002ED
:058ED3008002AF052242
:1090C700120431C4131313540120E0037F0022124A
:1090D70006D3FFEDC39F4003EF7004AF0580002266
:1092A000900A53121D44900A56120251900A53120A
:0A92B00002B250037F01227F00226A
:1092BA00900A53121D44900A56120235900A53120C
:0A92CA0002B240037F01227F002260
:108F47009004D0121C5CC006C007900664E0FEA324
:108F5700E0FBAA06E4F9F8D007D006121A3E9004FF
:048F6700D0021CB464
:10780A00900A4D121D44900A50121D3B900A5612BE
:10781A0006D91292A0EF600E900A50120235120792
:10782A00FE128F478028900A50121D3B900A56126A
:10783A0006D91292BAEF600B900A5012025112073F
:10784A00FE800B9004D0121CC0000000002290049D
:10785A00D0121C5C1206DC121C94121A3E1207FE8D
:01786A0022FB
:10888D00900A4D121D44900A4D121D3BC003C002AB
:10889D00C0011203F0D001D002D003121C1E900AA9
:1088AD004D120643C003C002C0011203F0D001D027
:0688BD0002D003021C1EA4
:1079EA00900A46EFF01201D07B0112015B900A4720
:1079FA00121D4490000912036613540330E03A90B2
:107A0A000A46E075F020A4240CF9740535F0FA90C2
:107A1A000A4A121D44C003C002C001900A47121D3F
:107A2A003B900A50121D44D001D002D00312780AAA
:0A7A3A00900A4A121D3B12888D22AB
:10550B00900A5D1200B2900A5F121D44900A5D1260
:10551B0001D0900A62121D44900A5F121D3B126A61
:10552B0003120476900001EF1218EC900A5F12063A
:10553B0043126A031204769000021201577B01C0DA
:10554B0003C002C00112035D5403FDD001D002D091
:10555B00031291661204769000031201577B01C06F
:10556B0003C002C00112035D13135401FDD001D01F
:10557B0002D003120473900005EF1218EC90000296
:10558B0012015E7B01C003C002C00112035D131345
:10559B005401FDD001D002D003120473900006EF2A
:1055AB001218EC1206D36007900264E0FF8005909E
:1055BB000263E0FF900A5EEFF01204769000021295
:1055CB00015E7B01C003C002C001900A5F121D3B4C
:1055DB0090000C12188BFF900A5EE0FEEFD39E40FA
:1055EB0004AD068002AD07D001D002D0031290C7E4
:0A55FB00900A621203BBEF0218ECE5
:1080640043DF02AFDDEF75F010A4FF90029AE5F054
:10807400F0A3EFF090029BE0FFE5DCC4540FFEEFA9
:108084004EF0D3E0940C90029AE0940B400EA3E0DF
:1080940024F4FF90029AE034F4FE80047E007F0012
:0980A40090029AEEF0A3EFF02225
:10459700900A3AEFF0A3EDF0D390029BE094B69027
:1045A700029AE094034008901425120516801AC356
:1045B70090029BE0943C90029AE09401500590147D
:1045C7002780039013FD120516900A3CEEF0A3EF27
:1045D700F090066FE024FE700302468B147003020E
:1045E70046CC80007D421203D2900A3AE004FFC015
:1045F700071200C47A0A793C120023900A3BE0FDB7
:10460700D0077B17126B08900A3AE02402FFC00715
:10461700A3E004FDC005900A8DE4F074061200CBF8
:104627007A0479A1120023D005D0077B15126B08F5
:10463700900A3AE02403FFC007A3E02402FDC00567
:10464700900A3EA3E0FBC00312022B74041200CCB5
:104657007A0A793C120023D003D005D007126B08E1
:10466700900A3BE02402FDC00512022B74041200DD
:10467700CC7A0A793C120023900A3AE0FFD0057BF6
:1046870001026B0890029A7D0612055A1203DF9009
:104697000A3EE0FEA3E0FF7D4C121920900A3EEE91
:1046A700F0A3EFF09002B512035790054C74FFF09A
:1046B7007403120040D209C20A1261F49000077411
:1046C70025F00247037D301203D2900A3EE475F0CD
:1046D7003A1219751205EDE4FCFD12007C1206E290
:1046E7001261F41205EDAE04AF05E4FCFD12007C87
:1046F70012058C1261F41208047456F0E490000855
:10470700F0900A3BE0900A7DF0787E7C0A7D017B81
:10471700017A0A793C120023900A3AE0FD1200441C
:04472700128CB1221D
:108A2F00900ABDEFF0A37408F0C2DC1297B1900A60
:108A3F00BDE030E703D38001C392DA1297B1D2DCE5
:108A4F001297B1900ABDE025E0F0A3E014F0E070BA
:028A5F00D8221B
:10870500E4900A69F0A37480F0900A6AE06024D2CC
:10871500DC1297B130DA0E900A69E0FFA3E0FEEFB4
:108725004E900A69F0C2DC1297B1900A6AE0C31351
:09873500F080D6900A69E0FF22F1
:107A4400900A68EFF0C2DB1297B1900A68E04480B4
:107A5400FF128A2FC2DCC2DA75A5F9D2DA1297B105
:107A6400128705900A681206EFEFF0128705900A54
:107A740068E025E02451F582E43405F583EFF0D283
:107A8400DB75A5FD1297B1900A68E075F002A42495
:0A7A940050F9740535F0FA7B012269
:1080AD00900ABAEFF0A3ECF0A3EDF0C2DB1297B19A
:1080BD00900ABAE0FF128A2F900ABBE0FF128A2FB6
:1080CD00900ABCE0FF128A2FC2DC1297B1C2DAD23D
:1080DD00DB1297B1900ABBE0FEA3E0FF900ABA1243
:0880ED0006EFEEF0A3EFF02214
:108DA400900A66ECF0A3EDF0900A65EFF0127A44B5
:108DB4001219A1FF900A66E055F0FCA3E05FFD9054
:078DC4000A65E0FF0280AD2B
:108DCB00900A66ECF0A3EDF0900A65EFF0127A448E
:108DDB001219A1FF900A66E045F0FCA3E04FFD904D
:078DEB000A65E0FF0280AD04
:107F8600900A65121D44E4900A68F01296D8120110
:107F96006E900A69F0E004603004700F12016E758D
:107FA600F00AA4FFAEF01290E780E012016E900A8C
:107FB6006AF0120174900A6BF0900A69E0FFA3E080
:0A7FC600FCA3E0FD1280AD80C22292
:09970A00AD07AC067F300280AD12
:079778007FF17EBF02970A9A
:07977F007FF17EBD02970A95
:1065B300900A68121CB47B407AAC792778001208E1
:1065C3000E128320AC00AD01AE02AF03EC4D4E4F73
:1065D300701012080EEF24E8FFEE3403900A6812DD
:1065E300036D900A68121C78C000C001C002C0038A
:1065F30090066EE0FF3395E0FEFDFCC004C005C0CD
:1066030006C00712080E7811121BA7D003D002D0C0
:1066130001D000121A4C7809121BA7D003D002D064
:1066230001D000121A31900A68121CB4900A68E073
:10663300FCA3E0FD7F391280AD900A6AE0FCA3E081
:06664300FD7F380280AD6E
:10901E00900A65121D44E4FFFE12970A900A65122B
:10902E0002511265B3900111E06003029778129716
:02903E007F228F
:107AF500EF24FFB39204EF25E02432F582E4341538
:107B050012029C900A65EEF0FCA3EFF0FD7F1312C4
:107B150080AD3004067C027D7B80031205997F12BF
:107B25001280AD3004067C037D7B80031205997FAE
:107B3500111280AD3004067C007D7A800312059910
:057B45007F100280AD7D
:108FFB00900262E0B402067C007D288011300408E8
:10900B007E407C407D4880067E307C307D287F43CF
:03901B000280AD23
:10926A007C007D1312190E300005EF1F70011EEEEF
:0B927A004430FEAD07FC7F400280ADD9
:109415007F67127A44900A5A12047C54011218DAB2
:07942500900A5A1203FC2219
:108B53007F65127A44900A54121D44E41218DA9085
:108B63000A54121D3BE92401F9E43AFA121872542B
:0C8B73007F1218DA900A5412032EFF2221
:0C96700074E9FCEF4440FD7F7D0280ADFA
:106C8900900A65EFF0A3EDF06034E0FFC374109F44
:106C9900A3F09004E474A0F0900A67E075F008A4EA
:106CA90012023E7F461280AD9004E47418F0900AF7
:106CB90067E025E025E012023E7F791280ADE4907D
:106CC90004E4F0900A65E060047F0880027F009088
:106CD9000A66E060047E0480027E00EE4F12023EE6
:106CE9007F311280AD900A65E0C4333354C0442B20
:0F6CF9009004E4F0A374381202417F280280ADAA
:108ED800EFB408047E078002AE079004E4EEF0EFDA
:108EE800B408047F0780027F009004E5EF12024176
:058EF8007F2B0280AD9C
:107E5A00300505900262EFF09004E57440F0EF14EB
:107E6A00601314601814601D14602280009004E4EA
:107E7A007460F0801E9004E47461F080169004E44B
:107E8A007467F0800E9004E47465F080069004E450
:0B7E9A007463F01202427F470280ADCB
:099713007BFF7A10795A027F866F
:08000300900663E0FF0249F6DC
:1049F600900A5EEFF0900114F01200B5900A5F1273
:104A06001D44900A5E1201D0900A62121D4490065F
:104A1600B9E0704C900A6212032E1205477041FFEE
:104A2600FE12970A901431121C681265B37F0112A8
:104A36007AF5E4900111F090023EE0700A900A5E69
:104A4600E0FFD205129794D2C3128364900A5F12D4
:104A56001D3B1271CE12081490000974010218EC65
:104A6600900663E0FF900A5EE0B5070990023EE01B
:104A76006003129500120814900009E41218EC7BEA
:104A8600FF7A1079D8127F86900A6212040624FFF4
:104A96009204128FFB1202CCFFD205127E5A9006A8
:104AA600BEE0FF128ED8D204120814900007121826
:104AB6008B24FF92051293E59006B0E0FDE4FF1209
:104AC6006C899006A9E0FF127AF51202CCB4010FA8
:104AD6007DEF7CC77F73128DA47D007C3880047DBA
:104AE600107C007F73128DCB1202CCB403067C00BF
:104AF6007D0080189006BFE025E02484F582E4342A
:104B060013F583E493FE740193AC06FD7F3D12809A
:104B1600AD1202CC7C54B402047D4880027D507FE5
:104B26004A124B4C12081AFFAEF0E4FCFD125B630E
:104B36007D0F7C1F7F37124B4C127616900A5F1240
:104B46001D3B12901E221280AD900A5F121D3B2261
:1067EC00E4FCFDC004C005C006C007A200FE33785F
:1067FC0002C333CE33CED8F9FBAA061208203AF5E1
:10680C0083D007D006D005D004121CB474DC2BF551
:10681C008274043AF583C083C082121C5C7B4C7A70
:10682C009379017800121A4CD082D0831207B8C326
:10683C0033CE33CED8F91208203EF583C083C08204
:10684C0012051EFCD082D0831207B8C333CE33CED0
:10685C00D8F91208203EF583C083C082121C5C124A
:09686C0005C7D082D083021CB4E0
:10664900900A4DEEF0A3EFF0A3ECF0A3EDF090016A
:10665900157401F0D2057F04127E5A7F057E00125F
:1066690090E7C2C3900A4DE0FEA3E0FFD200126793
:10667900EC900A4FE0FEA3E0FFC2001267EC900421
:10668900DEE0FCA3E0FD7F711280AD9004E2E0FC46
:10669900A3E0FD7F721280AD90067AE0FB7C007D5D
:1066A900B4FF7E0012190EEE547FFEEBFFEE44801C
:1066B900FCEF4480FD7F701280AD7DFA7CC37F3092
:0D66C9001280AD7F057E001290E7D2C32243
:10873E00E4900115F0D205FF127E5A7F057E0012DD
:10874E0090E71208271290E7C200E4FFFE1267ECD2
:10875E00D200E4FFFE1267ECE4FDFC7F701280ADE8
:09876E007DFE7CC17F300280AD6C
:0C967C007F0C127A441218725444FF2232
:0C9688007F0C127A441218725408FF2262
:10508500E4FD7F05128E19900663E060047F0880B9
:10509500027F027D01128E199002387401F090068C
:1050A500B3E0900659F0E4900111F0900293E0709E
:1050B5000A900663E0FFD2061209011201FFFF7D87
:1050C500011229B8D205E4FF125DC6129725120810
:1050D500271290E77BFF7A1079F7127F861204CCAE
:1050E5009204128FFB90066CE0FF12967090066D8D
:1050F500E0FF7E001204CC920012926A120257124F
:1051050004C3125B631200DF121C5C1265B39006C8
:1051150063E0FF12020314900113F0601DC204EF57
:1051250075F00AA424C2F582E43402F583E024FF75
:1051350092051293E57F011293FD7F0A7E0012907E
:10514500E77FFE7EC112970A7D207C3B7F5012804F
:10515500AD7F057E001290E7900A467402F090013B
:1051650013E0FF900A46E0C39F50177F017E0012AF
:1051750090E7900A46E0FF1293FD900A46E004F09E
:1051850080DC900001E0FEA3E0FF4E600DAA06A9B9
:10519500077B00E4FD126482800E12009FFF13134B
:1051A500540330E00312963CE4900001F0A3F02292
:106A860012009FFF1313540330E10312963C900645
:106A9600A8E030E1157F267E027D007C00125B6354
:106AA6007FF47E011290E71296D8E4FD7F0A128EDB
:106AB60019900113E0900A46F0900A46E0F4601738
:106AC6007F017E001290E7900A46E0FF1293FD9048
:106AD6000A46E014F080E2E4FF1293FDE4FFFE12A2
:106AE600970A129725E49002381203E9D206120992
:106AF600017D03E4FF1229B8C205E4FF125DC60258
:026B060000038A
:106EF90090066BE060397F6F127A44120331547F38
:106F0900900A47F0D394374006E024C9FF80027FF6
:106F190000900A47EFF0C394285008E075F003A4E5
:106F2900FF80027F78900A47EFF0D205125DC69084
:106F390004C6E0900A46F0900115E0600A900A46FE
:106F4900E0F4702502873E900A46E0FFC394105092
:106F590003028EFD900A46E0B4120E90067CE0FE14
:0A6F6900A3E0FFE4FDFC12664922DC
:108EFD00AD07ED25E0242BF582E4341112029CED33
:108F0D0025E0244BF582E43411F583E493FC7401E0
:058F1D0093FD0266490E
:0691A200121D3BEE04FD6E
:1091A800EDC313F58212017DFFED30E005EFC454E5
:0791B8000FFFEF540FFF222F
:1080F500EDC3137E0029F9EE3AFA900A5F121D448A
:10810500ED900A5F30E0181201AC540F1218DA90A6
:108115000A5F1201ACFF900A5EE0C454F0801312AE
:1081250001AC54F01218DA900A5F1201ACFF900A04
:078135005EE04F1218DA2290
:106D8700AE05900A52121D44E4FD1291A8900A55CF
:106D9700EFF0D394094002E4F012050F900A5EEE7B
:106DA700F07D091292D4E4900248F0FE900A55E073
:106DB7006E6048743F2EF9E43402FA1206FC900A1A
:106DC700521291A2900A59EFF0C3940A5005E02499
:106DD70030801D900A59E0FFB40E0712082E742A5E
:106DE7008013EFB40F0712082E74238008EF24379F
:0C6DF700FF12082EEF1218DA0E80B122F5
:109147009006B5E0FFC374149FFFE49400FEEF7828
:0F91570005C333CE33CED8F92464FFE43EFE22A5
:10676200900A53121D44E4FC743F2CF9E43402FAFB
:106772007B01900A5712047CFFC39430400BEFD385
:1067820094395005EF24D08015900A571201ACFFBE
:10679200C39441400FEFD394445009EF24C9900AA7
:1067A20056F0801A121872FFB42A08900A56740E14
:1067B200F0800BEF64237022900A56740FF0900A57
:1067C20053121D3BEC04FD900A56E0900A5EF01253
:1067D20080F5EC640960030C808E900A53121D3B15
:0A67E200900A5EECF0E4FD0280F581
:0C9694001204B7EF24F0FFEE341CFE229D
:0B96B800129694EF2405FFE43EFE2212
:109486001296B8120044900AC37407F0129084E44E
:0594960090000CF02223
:0F95F400129694120702900AC37405F002908435
:1078CC00900A4BEFF0E4A3F0900A4BE0FF9002AA71
:1078DC00E02FF0EF7005900A4B04F09002AAE0B490
:1078EC001402E4F09002AAE0B4FF037413F09002C7
:1078FC00AAE0FF1295F47E00900266E0540F60132C
:10790C00C3940AEE9400500B9002AAE0FF129486E6
:10791C007F0122900A4CE004F0E0B414AB7F00220B
:10648200900A4AEDF0900A47121D44C2AFE4FD1291
:1064920091A8900A4BEFF06073E0D39409506D908D
:1064A2000A4AE060097FC87E001290E78010E490FB
:1064B2000A4CF07FF47E0112650FE0B404F5E4901B
:1064C2000A4CF0900A4BE0FFA3E0FE6F603C900A9A
:1064D200471291A2128EFD900A4AE060067E007F6A
:1064E2007880031291471290E71296D812873E9055
:1064F2000A4AE060067E007F3C800A129147EEC3A2
:1065020013FEEF13FF12650F80B9D2AF221290E78C
:0A6512001296D8900A4CE004F02223
:0D963C007F131295F41207027D0102648273
:1076E200900AED74C8F0900AEDE014F0604F129623
:1076F200D87F0C127A4412033130E038E4FDFC7F6B
:10770200021280AD7F02127A4412187230E425E42C
:10771200900AEEF07F5F127A441219A1FF900AEEEE
:10772200E025E0120677120395900AEEE004F0E0FD
:10773200B404E1227F0A7E001290E780A990023011
:047742007422F0229B
:1058C100900AD1EFF01276E2900230E06467700442
:1058D100A3E0648960030259A1900232E064AB70D5
:1058E10004A3E064CD60030259A1900235E064EFA6
:1058F10060030259A1900AD1E0FF900234E06F6089
:10590100030259A1900236E0FDA3E0900AD2CDF046
:10591100A3EDF0A3E4F0A3EFF0E4A3F01276E2E448
:10592100900AD7F0900AD7E0FF6408604EE0FE12BB
:105931000677E0FD900AD6120834FCEE2C2419F506
:1059410082E43401F583EDF074302F120679E024FE
:1059510003FFE433900AD48FF0121975900AD4E052
:10596100FEA3E0FF7C007D1312190E900AD4EEF025
:10597100A3EFF0900AD7E004F080A9900AD6E004E2
:10598100F0E064047096900AD4E0FEA3E0FF900A70
:10599100D2E0B50608A3E0B507037F01227FFF220D
:0359A1007F002262
:10609800900AD8EFF09004E4E4F0A3EFF0E4900A5B
:1060A800D9F0900AD9E0FFC39420503074192FF525
:1060B80082E43401F583E02403FFE4339004E48FA1
:1060C800F01219759004E47D1312055A9004E4EE59
:1060D800F0A3EFF0900AD9E004F080C67D897C67D0
:1060E8007F5F1280AD7DCD7CAB7F5F1280AD900A63
:1060F800D8E0FF74EFFCAD077F5F1280AD1202425B
:106108007F5F1280AD7A017919900ADA12083B9004
:106118000AD9F0900AD9E0FFC394105021A3121DA8
:106128003B75F002EFA4F58285F0831219CCFDAC23
:0F613800F07F5F1280AD900AD9E004F080D5228D
:108254007F147E001290E77D687C287F591280ADE0
:108264001296D87F0C127A447F0C127A441203318E
:1082740030E0ED7D087C007F021280AD7F147E002B
:108284001290E7E4FDFC7F3F1280AD7D687C007FA7
:04829400590280AD5E
:108B7F001200787403120043C209D20A1261F490F2
:108B8F000A547437F078557C0A7D017B017A0A7993
:0C8B9F00E81200231200447D04028C86C2
:10954C007F0A7E001290E71296D81297C07F010214
:02955C0053F8C2
:10856700900AEA121D44ED1218B8900AEA1201ACFB
:1085770054FC1218DA900AEA1201ACD394EE4004C4
:10858700E41218DA900AEA1201ACFFC007120222BD
:0C8597007A147905120023D007028B7FB4
:07978600E4FD7F0F028E19C4
:108A9300900AF3EFF0127397EF640D70221297862A
:108AA3001202227A147905120023900AF3E0FF12CE
:108AB3008B7F127397BF0D051296D880F5D322C30F
:018AC3002290
:10921600900AF4EFF070047D0180027D007F091250
:0C9226008E19900AF4E0FD7F06028E19FC
:10318300900AC9EFF0C2C312977F129786E4900AA0
:10319300CAF01294431202227A1479051200231200
:1031A3003425900A7D7422F01200FA7A14790512FC
:1031B3000023C2087A11796B123440900AC9E07B6C
:1031C300FF60067A11797480047A117979C003C09B
:1031D30002C001900A7D742AF01200FA7A1479056C
:1031E300120023C208D001D002D0037D04128DF255
:1031F300900A7D7452F01200FA7A147905120023B2
:10320300C2087A117981123440900A7D745CF012FD
:1032130000FA7A147905120023C2087BFF7A117928
:10322300897D04128DF27A027996900ACB12083BBB
:10323300900ACEF012954C1294ED900ACFEFF090D5
:103243000ACEE07023A3E0D39409501C743712060E
:10325300337B04E4FD7F0312697F900ACFE0FF1202
:103263003B93900ACE7401F0900ACEE06041900A3D
:10327300CEE060C012954C12881F9002A0E024FE9D
:1032830060170470E9900ACB1201AC54FC900ACA8F
:10329300F0120842E4FD128567E4900ACE1202217F
:1032A3007A147905FE7F0212184C12342580BF90E0
:1032B3000ACFE0B40D0FE49002A6F09002A0F01242
:1032C30094430297BB900ACFE0FF640A6021EFB4F6
:1032D3000B071208427D048010900ACFE0640C6053
:1032E300030232371208427DFC128567023237121D
:1032F30002227A14791312002312342EC2C3900AC5
:10330300C9E0FF129216900AC9E070030233A612B5
:103313005085C2007F407E0012926AD204128FFB56
:103323007F007E007D007C00125B631234541234F4
:1033330054900ACAE0FF128A93404B1234487A1120
:1033430079CB127F86E4900AD0F01203377A0179A1
:103353001912026D129084900ACAE0FF04F0126001
:1033630098900AD0E004F0E0B404DF128254120211
:10337300227A14791312002312342E900ACAE0D34E
:1033830094EE40ADE4F07F327E001290E7126A863D
:103393001297861202227A14790512002312343707
:1033A300023237C2057F01127E5AD204128FFB12FA
:1033B30034487A1179A5127F86900ACAE0FF128AEF
:1033C30093500F12021B7A1479051200231234371B
:1033D300804A1296D8900ACAE0FF1258C1EF0460DF
:1033E3002624FE70D41203377B017A0179191291D6
:1033F30084900ACAE004F0D394EE400280FE1202E5
:10340300227A147913800712021B7A14792312008B
:1034130023900ACAE0FF128B7F0233BC1297860205
:103423003237900ACAE0FF128B7F22900ACAE0FF6C
:10343300128B7F22900ACAE0FF128B7F227BFF7DD3
:1034430004128DF2227BFF7A117995127F867BFF1E
:0C345300227FF47E011290E71296D8222E
:09971C0012967C900261EFF0222C
:103FF100900A50EFF0900A52EBF0900A51EDF0D395
:104001009437400A900261E070049004E7F012973F
:104011001C9006ABE0FF9004E7E0FE60047D0880A1
:10402100027DF8EF2DFF900A52E0F91475F00CA40F
:10403100FDEE60047EFE80027E02ED2EFE9004E71E
:10404100E0FD6012900A50E0C39E50047C018002A2
:104051007C00AE04800E900A50E0D39E40047E01A5
:1040610080027E00EE24FF9202ED6012900A51E080
:10407100D39F40047E0180027E00AF06800E900A2D
:1040810051E0C39F50047F0180027F00EF24FF9223
:1040910003300319E9640160033002119004E7E081
:1040A10070047F0180027F009004E7EFF09004E745
:1040B100E0FD7F04128E199006A8E030E00C129604
:1040C10088EF60069004A07405F09004A0E06004FD
:1040D100E402419290023EE0701C120849B50716B5
:1040E100900A52E060079002B4E0B4120990011105
:1040F1007401F00241961202D8E0FEA3E04E700373
:1041010002418E900260E0600302418E900A537476
:1041110019F0900261E0900111F09004E7E0603A3B
:10412100900111E070349004C5E0702E900A53E0C4
:10413100FF14F0EF60247F0A7E001290E77F0112E6
:1041410053F812971C900111EFF0128B53EFD39497
:104151003740C7E49004E7F080C0900111E0FF60B0
:10416100141202D8E0FCA3E0FDBC0409BD1A0690BC
:1041710002607401F0EF701D9002B9E030E316E4C3
:10418100FD7F04128E19E4900304F080089004E787
:10419100E0900111F090023EE0700A900111E0FD03
:1041A1007F01128E199004E7E07004900260F09094
:1041B1000111E0603F900025E060399002B9E030E4
:1041C100E232E4900111F07F2A12892D90029FE0E2
:1041D100FF12892D90029EE0FF12892D90029DE031
:1041E100FF12892D90029CE0FF12892D900A50E068
:0541F100FF12892D22E0
:1092320012941590023DE0FDD3EF9DEE940040089C
:0C924200EF9DFFEE9400FE22E4FEFF22F0
:107616001203FFD394A4EE9400500790023D745ACF
:10762600F022D3EF94D2EE9400500790023D746E90
:10763600F022D3EF9409EE9401500790023D746452
:10764600F022D3EF9416EE9402500790023D744454
:10765600F022D3EF9462EE9402500790023D744AF2
:10766600F022D3EF94CDEE940290023D500474487C
:06767600F022743EF02238
:1043F400900702E06003023DCE900676E06067908D
:1044040002B9E0FF60046408705C900162E0FFA3FD
:10441400E0900A4BCFF0A3EFF0125D07EF604290FB
:1044240000EE740AF09004E6E0601F120437900A6C
:104434004BE0B50613A3E0B5070E9004E6E014F0D4
:10444400E0702312651C801E800F120437900A4B03
:10445400E06E7003A3E06F600D9004E67432F080A8
:1044640005E49004E6F0129232900A4DEEF0A3EFC8
:10447400F0900111E024FF9200128B53900A4FEF49
:10448400F0FD900A4DA3E0FF900660E0FB123FF1BF
:10449400A2C392019006B8E0B40205E49002ABF026
:1044A40030003B900111E07078C2C37F03FE12908C
:1044B400E712977F9006B8E0B402057F1012892DA9
:1044C4009002A6E070031296F69006C0E070067D96
:1044D40003FF1229B8C205E4FF125DC680439001B0
:1044E40011E0603D9006B8E0B402057F1112892DF9
:1044F4009002A6E070031296F6A2C39201C2C330E2
:10450400010312458F129778C205E4FF127E5A12F6
:10451400458FD2C37F037E001290E71205FC127E02
:104524005A9006B8E030E01BB40107900111E0FF97
:10453400800C900111E070047F0180027F00EF2461
:10454400FF9293900111E0FF60099002ACE06003D8
:104554007405F0EF700C9006C0E0602E1208496FED
:104564007028900160E0702290023EE0701C900A76
:104574004D1207C4FFE4FD1229B8900A4FE0FFC2B0
:1045840005125DC69001607401F0227F037E001263
:0345940090E7228B
:105B6300900A65121CB47F4A9004E5EFF0900A682E
:105B7300E020E0559004E47491F0E47F1A7E04FD84
:105B8300FC900A651202C570119004E4E02404F04D
:105B9300900A65121CC000000A411202427F511292
:105BA30080AD12060A7BFC7AC0790F7800121A4C7A
:105BB3001206047B207AA179077800121AD71206FD
:105BC30004AD07AC067F0780689004E47481F0E0BD
:105BD300FCA3E0FD7F511280AD7D757C277F07120A
:105BE30080AD900A67E0FEA3E07802CEC313CE1324
:105BF300D8F9FFEE543FFEE4FC900A671207C31383
:105C03009204126B89120853E0540FFCA3E0FD7F4A
:105C1300081280AD900A69121C5C780C121B941256
:105C23000853E0540FF0E04480F0E0FCA3E0FD7F74
:055C3300081280AD2203
:106D08003010047F0080027F68AB07900AEFE054E0
:106D18003FFCA3E0FD3010161204E1D37401939DEB
:106D2800E4939C501D0BEBB469EBE4FB8014120454
:106D3800E1C37401939DE4939C40071BEBB4FFD51A
:106D48007B68EB602A900AEFE05440FC7D00900AD3
:106D5800EFF0A3EDF0EC4480900AEFF0A3E4F0EB41
:106D6800120293900AEFE04EF0A3E04FF08007E4A0
:0F6D7800900AEFF0A3F0900AEFE0FEA3E0FF22F5
:1074DD00AD07AC06EC30E74E5401900A50F0A3EF27
:1074ED00F09000047444F07B03900A50A3E054071D
:1074FD002430FF74042B12037DEFF0900A50E0FE50
:10750D00A3E07803CEC313CE13D8F9F0EE900A5052
:10751D00F0DBD6EC30E6047F4980027F4E90000808
:10752D00EFF0E4A3F0221200441201DE7404F07BAC
:09753D00FF7A1479641289C92255
:107D76003011047F0080027F3230111312039CD32E
:107D8600ED9BEC9A501A0FEFB433EEE4FF8011121C
:107D9600039CC3ED9BEC9A40071FEFB4FFDB7F32D9
:107DA6001207CBF583E493FF740193900AF1CFF0A9
:0C7DB600A3EFF0900AF1E0FEA3E0FF2232
:106B8900900A6D121CB4120709900A7112036DE480
:106B9900FB1204157801121BBB12040FE4FFEE541B
:106BA90010FEE4FDFCEE600E120415EF64EAFFEE40
:106BB9006408FE1206810BEBB40CD6120415EF54CF
:106BC900FEFFEE540FFEE4FDFC12040F780B121BBE
:106BD900BB120682900A71121C7812070912052845
:106BE900FC121B69120682300410120415EFF4FF1F
:106BF900EEF4FEED647FFD120681900A71021C5CC1
:10896200900A5A7401F0900A5AE0FF64696022EF9B
:10897200120293E4FCFDC204126B899004A4120259
:10898200C57006900A5AE0FF22900A5AE004F0806D
:04899200D57F00226B
:10829800E4900A59F09004A6E0540EFFBF080712B4
:1082A8008962EF6001229004A4120716600E900400
:1082B800A4121C5CED4480FDEC1204829004A4120C
:1082C8000688120482900A59E004F0E0C39417402B
:0482D800C47F00223D
:107D2900900A59EEF0A3EFF0E4FF900A59E0FCA3A2
:107D3900E0FDEF25E0240FF582E43413F583E493A5
:107D4900FA740193FBC3ED9BFDEC9AFCD3ED94EC23
:107D5900EC6480947F400EED9414EC648094805020
:0D7D690004EF04FF220FEFB432C07F0022B0
:105D07007F68127A44900A5012047CFFC394805033
:105D170029900A50121D3BEF541F1218DA900A50AF
:105D27001203FC127D291207CB12029C4E600890C9
:105D37000162EEF0A3EFF07F01227F69127A4490AF
:105D47000A5312047CC394805072900A531201AC18
:105D5700540F1218DA900A531203FCE4FCFD1204E4
:105D6700829004A4121C5C780C121BBB1204827F65
:105D77006A127A44900A5612047C540F1218DA9069
:105D870004A4121C78C001C002C003900A56120373
:105D9700FCE4FCFDD003D002D001121B691204827F
:105DA700128298EF60131204E2E4934480FF7401B7
:0F5DB70093900162CFF0A3EFF07F01227F0022D3
:10869100900A7AEFF012936DEF6025900A7AE02448
:1086A10000FFE4341EFE200907E42FFF74013EFEA3
:1086B1007A0279A11204611290849002A1E0FF2252
:0A86C100900A7AE075F00384FF22AE
:107CDB00E4900A37F0900A37E0FD75F020A4A31268
:107CEB000394ED1202EB900A38E0FEA3E0FF74045C
:107CFB00127D1D12064E900A39E0240DFF900A38B2
:107D0B00E03400FE7402127D1D04F0E0C394C84001
:0E7D1B00C422900AC3F0129084900A37E0222E
:106C0900900A4DEFF0A3EDF07B017A03790C900A1D
:106C190051121D44E4900A4FF0900A4DE0D3940FAD
:106C290040037401F0900A4DE0C394015003740FBE
:106C3900F0900A507402F0900A50E0FF64C860278F
:106C49001202EA129062EF6016900A50E0FF900A71
:106C59004DE0FD127B9FEF6006900A4DE0FF229008
:106C69000A50E004F080D0900A4EE0FF900A4DE00F
:106C79002FF0900A4FE004F0E06411709C7F00222D
:0B96C300AB07900ADE12052F021CB45A
:0897400075F002EF12077B2215
:107B9F00900A54EDF0EF12064E1219A1E5F0C454FD
:107BAF000FFF900A54E0FD7C006F7001EC602A1209
:107BBF0019A1E5F0540FFFED6F7001EC601B121966
:107BCF00A1120488FF900A54E06F7001EC600A1252
:0F7BDF0019A1540FFFEDB507037F01227F00228C
:1056F400900A4D1202FA200016900A4DE0FFD3944E
:1057040001400C1202EA129062EF6003D38001C3DD
:10571400920130010E900A4FE0FD604F1257D160A4
:10572400028048E4900A50F0900A4EE0FF900A4D3F
:10573400E02FF0E0FFC394024004EFB4FF08900AA6
:105744004D74C7F0800CEFD394C74006900A4D7493
:1057540002F0900A4DE01202EB129062EF60129098
:105764000A4FE0FD60051257D16006900A4DE0FF34
:1057740022900A50E004F0E0C394C840AB7B017A65
:1057840007791F1282DCEF603212072390071F1281
:105794001CB41200441201DE1257C27A00790812B6
:1057A40001DE1257C27A00790C7D1812975012004C
:1057B4004412063C7F407E00126E7E7F02227404F7
:1057C400F07BFF7A14792D1289C97B0122900A4D4E
:0757D400E0FF127B9FEF22B2
:0A96CE00EF12033B12026F029084BA
:10792C00900A4DEFF0A3ED1200B3A3121D44900A80
:10793C004DE0FF900A4F121D3B1296CE1205A4C0CB
:10794C0003C002C0011205A4120343740BF0D00152
:10795C00D002D003127EA5900A4E1201D07B01906A
:10796C000A4DE01218DA900A4EE0FF128529900AAF
:0F797C004EE0FF9002B9E024FFB392050297940A
:10877700EF75F020A42414FFE435F0FE12004490B6
:108787000AC3740CF0129084120044900A7D121DE3
:10879700449013D7E49360047F0880027F0C900A0B
:0887A70080EF120043027EA5E1
:10904000900A561200B2A3121D44900A561201D083
:1090500012187212033B900A57121D3B12063C0273
:029060006E7E22
:08974800900663E0FF0290406F
:10706700900663E0FC1200A3FEC4131313540190AF
:1070770006DEF0EEC4135403900003F0EC1200A3F5
:10708700FE5401900112F0EE1313540390023912CB
:1070970003E9120690E09002A5F0EF75F00AA42428
:1070A700BCF582E43402F583E01201617B017DFFC8
:1070B7001290C79004CD1203E81202DCE0FDA3E0B2
:1070C70090054ECDF0A3EDF0EF12025BE0FFA3E0D9
:0970D700900651CFF0A3EFF02266
:106F73009006DEE05401C4333333548012085D12AB
:106F830000A3547F4FF0900003E05403C43354E054
:106F9300FFEE1200A3549F4FF0900112E054011230
:106FA300085D1200A354FE4FF0900239E05403250C
:106FB300E025E0FFEE1200A354F34FF09002A5E0AA
:106FC30012085D120690EFF090054EE0FCA3E0FD81
:106FD300EE1202DCECF0A3EDF0900651E0FEA3E02C
:0A6FE300FF120257EEF0A3EFF022B8
:10724400900A79EFF06060E024FFFFE434FFFE7CF5
:10725400007D0612190EEF2490FFEE341CFE120579
:107264000F900AC37406F012908412004412034370
:107274007405F07A02793F127EA5E490000AF0903A
:107284000004E06420702C1200441201DE7406F045
:107294007BFF7A1679D21289C9900A79E0FF129697
:1072A40015900008EFF0221200441201DE12086467
:0472B4001289C92250
:10394A00759AFF75A1DD75A2C675A3EF75A4FE75FC
:10395A00A5FD90F0347401F075800F75900275A082
:10396A0040E4F5B075C0B175D820538EF74389018C
:10397A00F58AF58CC28CD2A9D28CF5DF75DE0843A4
:10398A00DE6043DE8090F69274A0F0D2AF75EC5000
:10399A0090F6987404F0A304F090F0047403F0A372
:1039AA00F01296D8538E1F438EE07596AA759655D7
:1039BA004397021201831283E9D2B3129443127815
:1039CA006BE4FF1293FD7F40128D7C12022B7480F0
:1039DA00F07A14790B12001B7B80E4FDFF126B084E
:1039EA001201B27A1479051200237BFF7A1479AD99
:1039FA007D04128C8630A3117FF47E011290E7A217
:103A0A00B5B392B51296D880ECC297D294C2B79049
:103A1A000666740AF0A374F0F0A3740AF0A374F0B3
:103A2A00F09006607402F09006647404F0A374E2E5
:103A3A00F090066C7419F0A37440F0900670E4F0EC
:103A4A00A37464F0900677741CF090067C7406F0F8
:103A5A00A374D6F090067A7420F09006AB742FF017
:103A6A009006B1E4F0A37414F09006BA7404F0A3BB
:103A7A0074D2F0120729127CDB30A505128C5B8008
:103A8A0011D2B51296D87FF47E011290E71296D819
:103A9A00C2B59006BCE0B402069006A47401F01206
:103AAA0072B81293CD9006BDE0FF1296A07B017A00
:103ABA00017917900AC374CAF07F007E1A129084A3
:103ACA0012936DEF60237A0279641204617FFF7E9C
:103ADA001D1290847B017A0279631204637FFD7E52
:103AEA001D129084128857800A90026474FFF09025
:103AFA000263F09005B074BFF0A374F1F01297134B
:103B0A00E4FFFE12970AC205E4FF127E5AC2C6906B
:103B1A000309740112069E9004C6F090013EF090CB
:103B2A0002B4F0900663E060047F0080027F019097
:103B3A000663EFF0E0FE120051FFEE120149E0FDCC
:103B4A00E4FB129770900663E060047F0080027FB6
:103B5A0001900663EFF0E0FE120051FFEE120149F8
:103B6A00E0FDE4FB129770900678E09002A2F090D4
:103B7A0006A5E024FF92B31297BB124892D2041210
:093B8A00818390065D7401F022B4
:10955E001296D81297C09002A6E020E2F3125F3561
:02956E0080EE8D
:108C5B0074021203237F007E191290849013E51285
:108C6B00029E90065EE0B50611A3E0B5070C74807A
:0B8C7B001203237F007E191290842258
:07978D009002947401F02228
:108F6B009013E5E493FF74019390065ECFF0A3EFAB
:108F7B00F07B017A06795E900ABD7480F07F007EEB
:048F8B0019026E7EDB
:0A96D8007596AA7596554397012276
:10906200900A54121D44900A541202511207D6500B
:109072000E900A541202511205B240037F01227F60
:029082000022CA
:108BAB00900A57EFF0A3121CC000000001900A5767
:108BBB00E0FF14F0EF600FA312034D121A4C900A52
:0C8BCB0058121CB480E7900A58021C5C91
:108A6100900AE2121CB4E4900AE6F0900AE21203C2
:108A71004D121AD7900AE2121CB4900AE6E004F0F3
:108A8100900AE2121C5CEC4D4E4F70DF900AE6E05A
:028A9100FF22C2
:10774600AB07AA06E4900A4CF0A3F0A3F0A3F0EB73
:107756004A6046120787AF05900A50EFF0D39407A8
:107766004004E4FEFF22120787AA06AB07900A4EE2
:10777600A3E0FFA3E07E00A807088005C333CE334D
:10778600CED8F9FF900A4CEE8FF0121975900A4E7A
:10779600E475F00312197580B6900A4CE0FEA3E07A
:0277A600FF22C0
:03961200540FFFF3
:0B961500EF70037F2022EF2440FF22B3
:1088C300900A5DEDF0121BCE1205C7A804A905AAF4
:1088D30006AB07900A5DE06005900666800390068C
:1088E30068E0FEA3E0FFE4FCFDC3121B8350037F9B
:0588F30001227F0022BC
:107DC200EF6036A2089209128691900A79EFF012BA
:107DD20008047457F0E4A3F0EF75F00A84120077F8
:107DE2001206E21261F4900A79E075F00A84AFF0AB
:107DF20012007812058C0261F41200441201DE7442
:0C7E020005F07BFF7A1679C71289C922AF
:1061F400900A8A121D4490054CE0FF9004AEE02FF3
:1062040004900A8DF0300A0C1205BCF582758300E7
:10621400E41218EC900A8DE0FF14F0EF604890054A
:106224004CE070101205BCFF14F08F82758300746B
:106234002E1218EC90054CE014F01203509002B5A5
:10624400121C5C121AD7AF03900A8EEFF02430FFB1
:106254001205BCF5821204209002B512034D121AE5
:10626400D712061080AE30092E9004AEE014F0E48C
:10627400FF9004AEE06F601F900A8A121D3B12016A
:106284007BB43013900A8A121D3B8F82758300748D
:08629400201218EC0F80DA2241
:1082DC00900A5D121D44900A5D1201ACB4FF0812A5
:1082EC000723121C1E802A121BCE1207D6400590A3
:1082FC0013A7800E900A5D1202511205B250129013
:10830C001380121C68900A5D121D3B121C1E7F010B
:04831C00227F00229A
:108F8F00900A3B121D44900A3B1201ACFF6012D3B2
:108F9F009D4007EF9D1218DA8007E41218DA7F015F
:048FAF00227F0022FB
:10629C00900A41121CC000000000E4900A45F0A3D3
:1062AC00F0900A41121C5C1205D112086E1296D89D
:1062BC00900A41121C78C000C001C002C0039017A4
:1062CC000E121D4D900A45E0FEA3E0F5828E83125E
:1062DC00188BFFE4FCFDFED003D002D001D00012DD
:1062EC001B7612086EE4900A47F0900A41120716CA
:1062FC00900A41600E1206889013DF121C84121B48
:10630C0076800312068812086E900A47E004F0E0CB
:10631C00B408D7900A45E475F001121975900A4536
:10632C00E064F87088E4FFFEFDFC900A411202C59F
:08633C0070037F01227F0022A3
:10899600900ABE121D44900AC4E0FF14F0EF602056
:1089A600900AC1121D3B900AC4E0FFF58212017DB8
:1089B600FE900ABE121D3B12017B6E60D97F00221B
:0389C6007F01220C
:107EA500900A7A121D441207E0FE14F08E82758343
:107EB50000E41218EC900A80E0FEF4602D900A7A36
:107EC500121D3B8E8212017DFFC3648094A0400881
:107ED500D3EF648094FE40027F201207E0F5821202
:0B7EE5000420900A80E014F080CB2203
:1089C900900A7A121D44900A80E0FF14F0EF6022A9
:1089D900900A7A121D3B900A80E0FFF58212017D10
:1089E900FE900A7D121D3B8F82758300EE1218ECF2
:0389F90080D42205
:08975000E4900A5EF00292D4DD
:1092D400900A5A121D44AF051DEF600D900A5EE01E
:0A92E400FF900A5A12041B80ED22CD
:1051B500900A39EFF07A0279A31252CE7B017A0375
:1051C5007907128F8FEF6007E490065512069E90BF
:1051D5000025E060057F2B12892D900659E0F460CB
:1051E500167A0679591252C3EF600C900238E060C6
:1051F5000690065974FFF09002A6E070177A0679BA
:10520500571252C39002B9E0B40809900674E060E1
:10521500031297007A0079EE1252D6600AE49001E3
:1052250062F0A3F012651C7A0279AC1252CEEF60DF
:105235000E12087412019A6006128F221200039052
:105245000238E07022900111E0701C30B219900212
:10525500A6E070137B017A0279A27D01128F8FEF90
:105265006005C204128183900679E0602820B2258A
:105275009004D4E07003E004F07A0479D41252D695
:105285006013900679E09004D4F0D2B27F1E7E00C0
:105295001290E7C2B2900294E06005E4F0128F6BC1
:1052A5009002A6E0701790066FE0601112806412FC
:1052B5009539AD079013D6E493FF124597227B01EC
:1052C500900A39E0FD128F8F227B017D01128F8FAD
:0D52D500227B01900A39E0FD128F8FEF223D
:1036F700900A39EFF012061660030238317B017A1F
:103707000079FE7D01128F8FEF700302383190062A
:10371700B7E09000FEF09002A6E060030238319017
:103727000663E0FF1291F99004CEEFF012087B6078
:103737000D9013DDE493700690141B12018712009D
:103747004D7063120882120610740512008414F07B
:103757007B017A007909D209D20A1261F490002517
:10376700E07BFF60067A14794A80047A147944C0B2
:1037770003C002C0011200441201DE7405F0D0013B
:10378700D002D0031289C99013BBE493FF12965657
:103797009004CE1201357A14790F1200231205E630
:1037A70012004402382B1206BE1296569004CE120F
:1037B700061D7BFF7A1479111200231204EE1206FC
:1037C7002A1257DB900306E0FF1287779013BBE4BA
:1037D70093FF1296569004CE1200F47A14790F12C2
:1037E70000239013D7E4931205E2120044128DF2DE
:1037F7009003061200767403120043C209D20A121C
:1038070061F41208881296569004CEE0900A7D1251
:10381700088FFDC00512013B7A1479151200231297
:103827000044D005128CB11201837A0679531239FC
:10383700347B017A0279DA7D01128F8F7B017A045A
:1038470079A0128F8F7A067956123934EF6005E422
:10385700900295F09002ACE060179002A6E0700C21
:103867009002B9E0700690023EE06005E49002AC79
:10387700F0900111E06005D204128183900160E0AD
:10388700600214F0900304E0600214F090023EE03E
:103897006003128BD7900661E06064900238E07095
:1038A7005E9002B9E070589002A6E0705290011144
:1038B700E0704C9002A3E07046900663E0FE64015E
:1038C700900A3AF0EE12019A7026120195703012A2
:1038D70049F612393F900111E0600D900A3AE090E5
:1038E7000663F01297BB801712000312393F800F4F
:1038F700120195700A900114E06F60031249F69067
:103907000661E06027900663120198601F9001111D
:10391700E06019EF6401900663F01297BB90023ED6
:10392700E060031295009002AC7405F0227B0190D1
:103937000A39E0FD128F8F227F147E001290E71262
:0339470043F42224
:10842A00900A39EFF0900238E0700D9002B9E0FF3F
:10843A006003B408031243F4900A39E0547FFF1230
:10844A0053F89002A6E030E10302881F9002A6E0EA
:10845A0030E00302345F9002B9E07003121E8922F1
:105F3500E4FF900A37F0A3F0C2AF9004ACE0600331
:105F4500FFE4F0900658E0FE6009900A37F0E4900F
:105F55000658F09000EFE0900A38F0E49000EFF07A
:105F6500D2AFEF60031251B5900A37E0FF6003121C
:105F750036F7900A38E0FF600312842A9002A6E003
:105F850070179002B9E0542C6005124B56800A90A8
:105F950002B9E0B410031259A49006B6E0603D9032
:105FA5000111E06037120616603230A52F128B53AF
:105FB500EFD394374012900261E0700C9006507454
:105FC5000AF0C205E4FF80117B017A0679507D0154
:105FD500128F8FEF600B1205FC027E5AE49006507B
:025FE500F022A8
:03000B0002861B4F
:10861B00C0E0C083C082C0D090022EE004F0E0B472
:10862B003C08E4F09004ACE004F09002A4E004F009
:10863B00E0B40608E4F0900658E004F09000EFE098
:0B864B0004F0D0D0D082D083D0E03209
:10949B007E80EE600FC2975F24FF92B7D297EEC328
:0594AB0013FE80EE221B
:10942C00E4FF7E80EE600FC2973095024FFFD2971B
:07943C00EEC313FE80EE22D7
:10813C00D297C294C2B712949B120331FF12949B34
:10814C0090000212188BFF12949B1202D2FF129411
:10815C009B7FAA12949BE4FD900AA9E06D6011121A
:10816C00942C900AADEFF0900AAA12041B0D80E833
:07817C00C297D294C2B722A2
:106FED00900A80121D44900A83EDF0E4900A86F019
:106FFD00900A86E0FFC39408505F900A83E02FFF4C
:10700D00E433FE900A80121D3B8F828E8312188B03
:10701D00900A87F0A37401F0900A88E0FF60329027
:10702D000A87E05F24FF9208300807900A84E0FF8A
:10703D0080059004A1E0FF300805900A858003903B
:10704D0004A2E0FEFD129594900A88E025E0F08000
:0A705D00C7900A86E004F080972235
:105605009002ADE070030256ED9013DAE493700357
:105615000256ED24FE70030256DF8000900AA5E0D5
:10562500FCA3E0FDEC131313541F7E00541FFFEC85
:105635005407FCEF7801088005CEC313CE13D8F9C3
:10564500541F33333354F8120440FEA3E0FF541FB4
:10565500FB8E83EF54E0F5827E00EB780108800530
:10566500CEC313CE13D8F9541FFFE583FEE5824F51
:10567500FFEE120444FCA3E0FDEC7E005407FFECB2
:1056850054F8FCEF7801088005CEC313CE13D8F982
:105695005407120440FCA3E0FD7B01AE047805CE5F
:1056A500C313CE13D8F97E005407FFED541FFDEF49
:1056B500A803088005CEC313CE13D8F97E0054077E
:1056C5007805C333CE33CED8F9FFEC4EFEED4FFF50
:1056D500900AA5EEF0A3EFF0800E900AA6E0441C18
:0F56E500F0900AA5E044E7F07B017A0A79A5224C
:106E0300900A791202FA1206A67A0A797C120023F2
:106E13001256051219A1FF900A7E12039578837CFE
:106E23000A7D017B017A0A797E120023900A7BE0B6
:106E3300FB900A7AE0FD900A79E0FF12801A900A2B
:106E43007AE0FFC007A3E0FDEF2407FBED240790E2
:106E53000AA8F0D007127EF0900A79120834FDC018
:106E63000578847C0A7D017B017A0A797E120023EE
:0B6E73007BFF7A157988D005026FEDD7
:1041F600900A8A121D441206A67A0A7992120023A0
:10420600125605900AA1121D44900A8D121D3B906C
:104216000AA8121D44900A90E0900AABF0900A9109
:10422600E0900AACF078AD7C0A7D01900AA1121DDF
:104236003B7E007F0212184CA209920B900A8A124A
:104246001D3B1270E0900A9D121CC00000000090F9
:104256000A8D30090812040625E0FF8004120406C0
:10426600FF900A9AEFF03009047F1080027F0890D1
:104276000A9BEFF0E4900A94F0900A94E0FF64152C
:1042860070030243E8900A8A121D3B12017BFF70FD
:10429600030243E81203B812188BFD7C00EF24E0FA
:1042A600FFE434FFFE12190E120899121C94121A1A
:1042B60031900A9D121CB41203B812188B900AA9E9
:1042C600F07B017A01793FA3121D447A0A799D7F1A
:1042D6000B12813CE4900A95F01203B812188BFF7A
:1042E600900A95E0FEC39F40030243D4900A91E0F2
:1042F6002EFE300906900A95E02EFE900A90E0FF09
:10430600C007AD06900A9AE0FCEF2C14FBA3E02E42
:1043160014900AA8F0D007127EF0E4900A98F09064
:104326000A8D120406FF900A98E0FE6F700302439E
:10433600CA900A95E02E243FF582E43401F583E025
:10434600900AA4F0E4900A99F0900A99E0FF3009E7
:10435600047E0280027E01EE6F6060900A9C74010A
:10436600F0900A9CE0FF604A900AA4E05F24FF9266
:104376000A300A09900AA112032EFF80059004A2B2
:10438600E0FF900A96EFF0300A09900AA11201ACFC
:10439600FF80059004A1E0FF900A97EFF01243E931
:1043A600300906900A971243E9900A9CE025E0F04E
:1043B60080AF900A99E004F002434F900A98E00417
:1043C600F0024325900A95E02408F00242DF900AA5
:1043D6009AE0FF900A90E02FF0900A94E004F00231
:0E43E600427F22E0FF900A96E0FD129594229D
:108CB100C003C002C0017A1379921201F3EDF09062
:108CC1000A7D1201267B017A0A797E120023C209EC
:098CD100D001D002D0030241F6EB
:108DF200C003C002C0011201EFEDF0900A7D120122
:108E0200267B017A0A797E120023A2089209D001F8
:078E1200D002D0030241F67B
:108C8600C003C002C0017BFF7A1379A01201F5ED83
:108C9600F0900A541201267B017A0A7955120023B4
:0B8CA600C209D001D002D0030241F649
:108CDA00900AC4EEF0A3EFF0E490050BF01297A708
:108CEA0012938E7FA012820F900AC4E0FF12820FA5
:098CFA00900AC4A3E0FF02820FFE
:10908400900AC0121D44128CDA12938E7FA11282B0
:109094000F900AC0121D3B900AC3E0FD1285A30283
:0290A4009570C5
:10918400900ABE121D44128CDA900ABE121D3B7D59
:0E91940020128E671295707F0A7E000290E70F
:106E7E00900AB8EEF0A3EFF0A3121D44900ABDE005
:106E8E00541F7066900AB9E0541F705E900ABDE000
:106E9E006058900AB8E0FEA3E0FF120269129084D7
:106EAE007B017A0479E9900AC1121D44900AC474D8
:106EBE0020F0900ABA121D3B128996EF700F900ABD
:106ECE00B8E0FEA3E0FFA3121D3B129184900AB816
:106EDE00E475F020121975900ABBE475F0201219B2
:0B6EEE0075900ABDE024E0F080A222B5
:0597A7007F2DDFFE2212
:1092850090050BE014600D14600A2402700AA20F09
:0B92950092D88004A20F92B60297A7A7
:10945A0090050BE014600A14600724027006A2D873
:06946A0022A2B622C3227B
:078D2C00D20F129285D20E56
:108D330090050BE014600D14601024027010A20E55
:108D43009296800AA20E92B78004A20E92C2029754
:018D5300A778
:078AF500C20E128D33D20DF9
:108AFC0090050BE014601414601124027018300DF2
:108B0C00047FFD80027FFC8FA5800B300D047FEF6E
:098B1C0080027FAF8FA30297A72E
:0993850090050B7401F01297A78A
:0F938E00C2AF128D2CC20F129285C20E028D3308
:10957000C20E128D33C20F128D2ED20F129285D2CF
:02958000AF2218
:1086CB00AE07E4FDC20D128AFCE4FCC20E128D3320
:1086DB00D20E128D33ED25E0FD12945A5004ED4469
:1086EB0001FD0CECB408E4128AF5EE24FF920F1294
:0A86FB008D2EC20E128D33AF052242
:10820F00AE07D20CC20E128D33E4FDEE33920F1275
:10821F009285EE25E0FED20E128D33C20E128D33F3
:10822F000DEDB408E6C20D128AFC128D2C12945A71
:10823F005008A20CB3920C300CF3128AF5D20F1225
:05824F009285A20C2243
:1085A300900AC4121D44900AC7EDF0E4A3F0900AA8
:1085B300C7E0FF14F0EF60231297A7E070047F0178
:1085C30080027F001286CB900AC4121D3B900AC81A
:0C85D300E0FE04F08E8212042080D3220F
:108E6700900AC1121D44AC05E4900AC4F0AF041C7B
:108E7700EF6012900AC1121D3B900AC4120177FFDE
:068E870012820F80E822B8
:04964900D281C28088
:09964D007F10AE071FEE70FA2237
:107397007DFF30A332C28312964D20A3027D0DD20A
:1073A70083C28112964D20A3027D0312964920A322
:1073B700027D0612079220A3027D0912079920A3D6
:1073C700027D0FD2A68034759AFE12964D20800258
:1073D7007D06759AFD12964D2081027D03759AF7F9
:1073E70012964D2083027D0D1208A020A7027D0969
:0E73F70075A28620A6027D0F75A2C6AF0522E4
:10687500AD0730A43EC28312964D20A4027D0BD2F3
:1068850083C28212964D20A4027D0CD282C281124F
:10689500964D20A4027D0212964920A4027D051280
:1068A500079220A4027D0812079920A402E4FDD2D4
:1068B500A6803F759AFE12964D2080027D05759A39
:1068C500FD12964D2081027D02759AFB12964D2090
:1068D50082027D0C759AF712964D2083027D0B126C
:1068E50008A020A7027D0875A28620A602E4FD75F2
:0568F500A2C6AF052260
:10865600AD0720A5037FFF22C28312964D20A502F7
:108666007D0AD283C28112964D20A5027D01129603
:108676004920A5027D0412079220A5027D07120754
:0B8686009920A5027D0ED2A6AF0522B0
:10939D00129758EF700C129760EF7006129768EFE6
:0893AD0060037F01227F002212
:089758009004C1E05401FF225E
:089760009004C2E05401FF2255
:089768009004C4E05401FF224B
:104CB500900A5DEFF0ED603C9002DA740AF0900A1C
:104CC5005DE01201C6E0FFC313547FFEEF5401FF00
:104CD500EE2B547F25E04FF01201C1E0FEC31354C3
:104CE5007FD39405404274B12F1201C8EE5401449C
:104CF5000CF080341201C1E0C313FE547FD39B40F6
:104D05001C74B12F1201C8E0FFEE547FFEEF540171
:104D1500FFC3EE9B547FFE25E04FF0800B900A5DAC
:104D2500E01201C6E05401F0900A5DE01201C6E010
:104D350030E057C313547F6003024E011201C1E0F6
:104D450054FEF0EFC39410400B900A5DE0641260CE
:104D550003024E019004C6E0FFF460279002B4E020
:104D6500F4702030B2189006A4E0600D9000F7E0D2
:104D75007007900A5DE0B4120590013EEFF0D20491
:104D85001281839004C674FFF022900A5DE0FF64EF
:104D950013702D74B12F1201C8E0C313547FFFD3D4
:104DA5009401400890013C7401F08014EF7011905B
:104DB500013CE06006128F22120003E490013CF0F2
:104DC5001201C1E0FEC313547F6406702F90013CAD
:104DD500F074B12F1201C8EE4401F09004C57401BE
:104DE500F0EFC394104007900A5DE0B41209900AF1
:0D4DF5005DE09004C6F022D20412818322FA
:10767C00900A5EEDF0900A5DEFF0640C60069006E7
:10768C00A7E06051900A5EE0FFF460499006A7E025
:10769C00B4031AEFC3940A501490023EE0700E909B
:1076AC000A5DE0640A6006A3E4FD026344900A5D8F
:1076BC00E0FF9006A7E0B401047E648011900A5E9E
:1076CC00E0FEC3740F9E33333354F82464FEEEFD96
:0676DC007C00127328225D
:1094ED0090013EE0FD7F0312767C90013EE0FF741B
:0394FD00FFF0225B
:1053F800900A5AEFF0E49004C5F0A3E0FFF4604788
:10540800900A5AE0FE9004A9E02EF0E0D3943140CF
:10541800417432F09002B4E0FE64FE60359006A458
:10542800E06008EF90160093B404279004C6E0FDEE
:105438006E60057F0A12767C9004C6E09002B4F094
:10544800D204128183800BE49004A9F09002B47412
:10545800FFF09006BCE060069006A4E0705730A309
:1054680007900139E0B410047D0180027D007F10AF
:1054780012550230A407900139E0B411047D01806F
:10548800027D007F1112550230A507900139E0B462
:1054980012047D0180027D00900A5AE0FB7F1212FF
:1054A8004CB52091047D0180027D00900A5AE0FBF2
:1054B8007F13124CB5127397126875128656900AAC
:1054C8005CEFF0E4900A5BF0900A5BE0FE64106029
:1054D80028E0FFA3E0FDEF6D6009900139E0FDEEE3
:1054E800B505047D0180027D00900A5AE0FB124C4C
:1054F800B5900A5BE004F080CF22900A5AE0FB12D4
:035508004CB5227D
:10818300300409900677E02423FF800D9006B4E0C5
:1081930060052423FF80027F00128D7CA20492B22B
:1081A300300408900678E09002A2F09006B4E060F4
:1081B300047F0080092004047F0180027F00EF24F4
:0681C300FF92050293B5D6
:108D5400900AAAEFF0E4F5ED900282E06003129726
:108D6400B6900AAAE0F5EEE5ED30E7FBD286900274
:088D740082E060031297B622B1
:10959400900AA9EDF0128D54900AA9E0FF028D54AF
:0597AC00C286028D548D
:1083E900E4900A37F0120730900A38F0E02405606B
:1083F9002214601B14601414600614701AD2B2227D
:10840900120730FF7E001290E780DAD28780D6C249
:108419008780D2C28680CE900A38E0FF128D5480C0
:01842900C48E
:107EF000900AA51202FA900AA5E02420F0900AA7A1
:107F0000E02420F07F2A1297AC900AA6127F3390CB
:107F10000AA8127F337F2B1297AC900AA5E0FDE4EC
:107F2000FF129594900AA7E0FDE4FF1295947F2C30
:0B7F30000297ACE0FDE4FF12959422E4
:106B0800900A8A1202FAC007C005C003900A8EE0F4
:106B1800900A94F078957C0A7D017B017A0A798F36
:106B2800120023D003D005D007127F3B900A8AE0D9
:106B3800FFC007A3E0FDA3E0FEEF2E14FBA3A3E034
:106B4800FEED2E14900AA8F0D007127EF0900A8D60
:106B5800E0FEA3E0FF900A8CE0FD7C0012190EA372
:106B6800EEF0A3EFF0900A8D74FFF5F012198B4543
:106B7800F0600D900A8FE0FFA3E0FD12959480E588
:016B880022EA
:1094430012022B74801200CC7A0479A11200237BC0
:0794530080E4FDFF026B083D
:1093B5003005047F1080027F111297AC3005047FC1
:0893C5002880027F290297AC09
:1093CD007F261297AC90067BE0FFF87401088002AF
:0893DD00C333D8FCFF028D54DC
:0C96A000EF60047F2180027F200297AC65
:10932200120063121C5C9000F3121CB4EB1200E3F7
:09933200121C5C9000F8021CB44E
:10846A007B017A0079F3129062EF70091207239068
:10847A0000F3121CB47B017A0079F8129062EF7053
:10848A00091207239000F8121CB49000F31200603E
:10849A00121CB49000F8121C5CEB1200E3021CB42C
:1077A800900663E0FF1200E3121C78EF12006812E3
:1077B8001C5CC3121B836049900663E0FB1200A3A4
:1077C800FFC31320E0047E0180027E00EE540125F1
:1077D800E0FE900663E0FDC43354E0241BF582E428
:1077E8003405F583EF54FD4EF0ED1200681204984D
:1077F800EB1200E3121C5CEB1200681200D6121C9C
:02780800B422A8
:107E0E0012022B04F0788F7C0AFD7BFF7A14790521
:107E1E001200237B807D3FE4FF126B08900A8DE4F5
:107E2E00F074401200157B807D40E4FF126B0890C9
:107E3E000A7D744AF01200FA7A147901120023D2E4
:0C7E4E00087BFF7A14793F7D20028DF242
:10798B00127E0E745E1201B47A1479011200231266
:10799B0000447D30128C861207027D20126D879079
:1079AB000A54746F1201B77A14791112002312055D
:1079BB000F7D30128C869002AA1200767402120090
:1079CB0043C209D20A1261F4900A54745E1201B7D1
:0F79DB007A1479131200231200447D10028C8657
:10255900900A46EFF07E009004C7E07BFF60067AA0
:1025690016791080047A167900E92FF9EA3EFA12F1
:102579001872900A47F0121DA828FC0029020129A7
:10258900950228ED0328910428810528370627C6D6
:102599000727770827680927600A273C0B26780C44
:1025A90026390D264D0E25E80F25DF1025CA1125E0
:1025B900CA1225CA1325C514000029AC9006C28089
:1025C90018900A47E024EF90066AF0129443D20467
:1025D900128FD70229AC9004C7E064010226491280
:1025E900004D60030229AC90023EE060030229AC71
:1025F90090070204F090066AE0B40103129443D2F2
:1026090004128FD7E4900111F0129127120874FF78
:102619001291F9AD07C0059013DBE493FF12022B69
:10262900EF120016D0057B80E4FF126B080229AC7B
:10263900900282E070047F0180027F00900282EFA5
:10264900F00229A912004D701890023EE0600302C1
:1026590029AC900660E070030229AC125A8702295E
:10266900AC9006BDE06401FFF01296A00229AC12FD
:1026790001FF70030229ACE4FF1278CCEF7003026A
:1026890029ACE4900654F09002A604F0900A48F0B0
:10269900022728900A48E0700302272E1296D87F55
:1026A900107E001290E71243F41297C07F01125373
:1026B900F81294ED900A46EFF012939DEF6011E441
:1026C900900A48F09000017402F0A37465F080C389
:1026D900900A46E0FFC3940A5026900654E0B401DC
:1026E90006EF240AFF8005900A46E0FF9002AAEF50
:1026F900F0900A46E0900654F0E4FF1278CC801F6F
:10270900900A46E024F5600E14600F147085E49079
:102719000A48F002269C7F0180027FFF1278CC12C2
:10272900798B02269CE49002A6F01294431297BB7F
:102739000229AC1201FF70030229AC127E0E900A25
:102749004E7402F0120702A3121D447B647D1C7FA4
:10275900091284AA0229AC12009F54FDF0800612C6
:1027690077A81200031297001297480229AC1200A9
:102779004D70030229AC9001107401F01296F6E431
:10278900900110F09013BB93FF129656C0071229BF
:10279900AFD0E02FFC900663E075F020A42420F967
:1027A90074057B01900A4F1208F11205E6900A4E52
:1027B9007401F0AB047F0B127C3D0229AC1229AFE6
:1027C900900A491203E8120051604CEF120149E0E6
:1027D90060459013BFE493FF129656900A49E02F83
:1027E900A3F012000E900A4AE0FD9013BEE493FF95
:1027F9007B1E126B089006DF7401F09013BEE49300
:102809002406FB900A4AE0900A55F0E4A3F0FD7F04
:102819000212697F0229AC1206BE129656900A4925
:102829001204A112697F7F99123B930229AC12000D
:102839004D60030229AC9006B9E060030229AC900F
:1028490004ABE0F470030229AC90023EE06005128B
:10285900846A80131293229006AC120060121CB491
:10286900EB1200B5127158900663E0FF1285291228
:1028790000031296F60229ACA2B3B392B3A2B3E451
:10288900339006A5F00229A99006A4E060509006AD
:10289900BCE0604A12022B7440F01208A97BFF7A4F
:1028A90014791F1200237B807D40E4FF126B08120C
:1028B900022B74101200167B207D5F7F30126B088B
:1028C90090141F1201861297C31201831206317BDD
:1028D90030E4FD7F0412697F9000F7022990128F7E
:1028E900B30229AC90023EE060030229AC1294C500
:1028F9000229AC127FD00229AC90023EE0600302AB
:1029090029ACFD7F20126344900663E0FF1291F920
:10291900900A49EFF0120427129656900A49E02FBF
:10292900900A55F09013B6E493FBE4900A56F07DB3
:10293900057F0412697F120427129656900A49E00E
:102949002FFDC005120450FFC0071200C47A047994
:10295900A1120023D007D0057B44126B081204276B
:10296900129656900A49E02FFBC003120450FDC08D
:10297900051202127A147913120023D005D0037FAD
:1029890003126E039001617401F08017900661E0F3
:1029990070047F0180027F00900661EFF01200034E
:0F29A90012489202978D900663E0FF1291F92277
:108FB3009006A4E070047F0180027F009006A4EF76
:108FC300F060047F0D80027F0EE4FD12634412976C
:048FD300BB02978DB9
:1091BF00129700900663E0FF120091E0FCA3E0FD20
:0D91CF00EF12065D75F00212077B02974853
:1094B0001202A99006BAE0B50608A3E0B507037F3B
:0594C00001227F0022E3
:101E8900900663E0FF1200517003021FF690013AB9
:101E9900E0FD7003021F54EF120091E0C4540F706B
:101EA90017ED540FC454F0FE900663E0120091C080
:101EB90083C082E0540F801712008CE0540F701F0A
:101EC9001208B0FEED120091C083C082E054F0FC0C
:101ED900A3E0FDEC4EFFEDD082D083CF021F4D125F
:101EE900008CE0C4F854F0C8A3E0120491702C12DD
:101EF90008B0C4F8540FC868FFE4C454F048FEEDB4
:101F0900120091C083C082E0FCA3E0540FFDEC4EA7
:101F1900FEED4FFFD082D083EE8029900663E0FF6B
:101F2900120091A3E0540F701F1208B0FDEF1200C8
:101F390091C083C082E0FEA3E054F0FFEF4DFFD0D3
:101F490082D083EEF0A3EFF01291BF900165E0FD1E
:101F59007003021FF6900663E0FC120091E0C4547E
:101F69000FFFEDFB7A00B5070DEC120091C083C09D
:101F790082E0540F801A12008CE07E00540FB503E2
:101F890014EEB50210ED120091C083C082E054F046
:101F9900FFA3E0804C12008CE0C4F854F0C8A3E021
:101FA900120491FF900165E0FB7A00B50710ED126C
:101FB9000091C083C082E0FFA3E0540F8023900604
:101FC90063E0FF1200917C00A3E0540FB5031BEC02
:101FD900B50217EF120091C083C082E0FFA3E0545D
:101FE900F0D082D083CFF0A3EFF01291BFE490013B
:101FF9003AF0900165F030B2030220859006A6E020
:10200900607A900111E07074900238E0706E90026D
:102019003EE07068C2C3FFFE12970AC2B312972549
:10202900E4900A3AF09006A6E0FF900A3AE06F6061
:10203900157F321225467F031253F820B208900A01
:102049003AE004F080DFE49000EFF0D204900663F8
:10205900E075F00AA424C1F582E43402F583E02492
:10206900FF92051293E59006A5E024FF92B37FF154
:102079007EBD12970A7F147E001290E71294ED90AC
:102089000A3DEFF09006B0E0605C7F0C127A449054
:1020990002DAE0700A12033130E2047F0180027F24
:1020A900FF900653E02FF0E0B4FF02E4F0900653EE
:1020B900E0B40B03740AF0900295E0601C9006539B
:1020C900E0FF7006900656E06004EFB40A18900627
:1020D900B1A3E0900656F0800D900653E0B40A06CD
:1020E9009002957401F0900238E0702190066AE040
:1020F900701B129758EF6006900663E0700C1297F8
:1021090060EF6009900663E0700312254F90066343
:1021190012019860030221E4900702E060030221A2
:10212900E4900238E0700DEF1200A330E00630B001
:10213900030221E4900659E0F4604D12939DEF707B
:1021490006900295E06041E49002ACF0D20412815D
:1021590083900661E0601E9006C2E0601890066AEE
:10216900E060129006C1E0FF900663E06F6006121E
:102179008F221200031201FF6061900238E07003A0
:10218900125085126EF98053900238E0604890062B
:10219900C3E09002A3F0126A86900659E0F4703603
:1021A9007D0A7F0C12767CE4FD7F1C126344900249
:1021B900DA7428F0E4900653F0900295F0C2AF1259
:1021C900939DEF600F1297C07F011253F87F0A1297
:1021D900254680EBD2AFE4900659F0900238E060D2
:1021E900030225459002B4E0FF24F4600F24FA604D
:1021F9003B2414603714603424F4702490023EE0C8
:102209006014EFB40C047F0180027F0090054DEF4C
:102219001207EB027FD09002B4E0900A3DF0800CE7
:102229009002B4E02420900A3D1207EB9002A0E04E
:1022390070030223646401600302232F900663E0A4
:10224900FF1200516024900303E06403701C9002A4
:10225900A0F0900299E0FED394C640027EC60EEF2C
:10226900120149E0FDAB0602243A9000F7E0601C38
:102279007FF47E011290E71296D81294B0EF7003A2
:1022890002232F129443128FB302232F900161E08E
:10229900FF603E24FE600F14601E240260030223C7
:1022A9002F1202A98022900663E0120068121C5CBA
:1022B9001208B7121A3E8010900663E012006812E5
:1022C9001C5C9002961203F61200DF121CB4022362
:1022D9002F9006DFE0600F1202A9AD07E4FB7F0132
:1022E90012977002232F900663E0FF120068121CF8
:1022F90078EF1200E3121C5C121A3E900A3E120299
:10230900A6900663E01200681202A6900A3E120324
:10231900F69002961200D61202A69002FB121CB485
:102329001295D4120729E49002A0F0900161F0906F
:1023390006DF1203E91285291200039000F7E06015
:10234900099006A4E060031294439000F7E024FF8B
:102359009204128FD7E49000F7F022900A3DE0FF33
:10236900C3940A504DEF70069002A6E060449006AF
:1023790063E0FF1291F9900A3B12004B7010901321
:10238900B593FF129656900A3B1204A180191208C0
:1023990088129656900A3BE0900A5512088FFBE482
:1023A900900A56F0FD7F0312697F900A3DE0FF0213
:1023B9003B93900A3C74FFF0A3E0FFF470030225FD
:1023C90045EFD3941F4007EF24E0FF022559900AF7
:1023D9003DE0121DA824DC0025080A24470B2447E8
:1023E9000C23FD0D24DC0E250B0F23FA120000250A
:1023F90045B2B522900702E06006129603029127C2
:10240900900663E0FF120051602CEF120149E06071
:1024190007E4FBFDFF0224D9900663E0FF120307DE
:10242900E07007EF1203077401F0120303E0FDE403
:10243900FB7F010224D9E4FBFD7F010224D9900A24
:102449003DE0FF640B6004EFB40E047F0180027F5E
:10245900FF900A3C12004B7063900A3CE0FF127B2C
:10246900EE120899900A42121CB4900A3DE0FF64EA
:102479000E6003EF700F900A4212034D121A4C902E
