:03000000020B2EC2
:0C0B2E00787FE4F6D8FD758120020B44AE
:1008C700759AFF75A1DD75A2C675A3EF75A4FE75B0
:1008D700A5FD90F0347401F075800F75900275A036
:1008E70040E4F5B075C0B175D820538EF743890140
:1008F700F58AF58CC28CD2A9D28CF5DF75DE084358
:10090700DE6043DE8090F69274A0F0D2AF75EC50B3
:1009170090F6987404F0A304F090F0047403F0A325
:10092700F0120B3A538E1F438EE07596AA759655B3
:0409370043970222BE
:1009D400900009120884000000007FA07E867D013B
:1009E4007C0090000912086CC312084F601E120BA1
:1009F4003A900009120860EF2401FFE43EFEE43D52
:100A0400FDE43CFC90000912087880CEA2B5B392B4
:010A1400B52C
:020A150080BDA2
:0A0B3A007596AA759655439701229F
:03000B00020B4F96
:010B4F003273
:040B4A007F2DDFFE1E
:010B4E002284
:100AD00090000DE014600D14600A2402700AA20058
:0B0AE00092D88004A20092B6020B4ADC
:100B020090000DE014600A14600724027006A2D857
:060B120022A2B622C3225C
:100AAF0090000DE014600D14601024027010A2016C
:100ABF009296800AA20192B78004A20192C2020B01
:010ACF004ADC
:100A860090000DE0146014146011240270183002F6
:100A9600047FFD80027FFC8FA5800B3002047FEF70
:090AA60080027FAF8FA3020B4A0E
:100B1800C2AFD200120AD0D201120AAFC200120A22
:060B2800D0C201020AAF79
:100AEB00C201120AAFC200120AD0D201120AAFD24F
:070AFB0000120AD0D2AF2265
:02098E00AE07B2
:10099000E4FDC202120A86E4FCC201120AAFD201CF
:1009A000120AAFED25E0FD120B025004ED4401FDEB
:1009B0000CECB408E4C201120AAFD202120A86EEAD
:1009C00024FF9200120AD0D201120AAFC201120A09
:0309D000AFAF05C1
:0109D3002201
:02093B00AE0705
:10093D00D203C201120AAFE4FDEE339200120AD0C7
:10094D00EE25E0FED201120AAFC201120AAF0DED83
:10095D00B408E6C202120A86D200120AD0D20112DF
:10096D000AAF120B025008A203B392033003F3C275
:10097D0001120AAFD202120A86D200120AD0A203C5
:01098D002247
:0B0A17009000001208BE900003EDF0FC
:100A2200E4A3F0900003E0FF14F0EF6027120B4AFA
:100A3200E070047F0180027F0012098E9000001294
:100A420008B5900004E0FE04F08E82758300EF1278
:040A5200082D80CF1C
:010A5600227D
:080A57009000051208BEAC0579
:100A5F00E4900008F0AF041CEF601B900005120833
:100A6F00B5900008E0FF04F08F8275830012080034
:060A7F00FF12093B80DFBD
:010A8500224E
:060B44001208C70209D4EB
:10080000BB010CE58229F582E5833AF583E02250AD
:1008100006E92582F8E622BBFE06E92582F8E222F7
:0D082000E58229F582E5833AF583E4932211
:10082D00F8BB010DE58229F582E5833AF583E8F001
:10083D00225006E92582C8F622BBFE05E92582C8AD
:02084D00F22295
:10084F00EB9FF5F0EA9E42F0E99D42F0E89C45F0FF
:01085F002276
:0C086000E0FCA3E0FDA3E0FEA3E0FF220B
:0C086C00E0F8A3E0F9A3E0FAA3E0FB220F
:0C087800ECF0A3EDF0A3EEF0A3EFF022F3
:10088400A8828583F0D083D08212089B12089B1221
:10089400089B12089BE473E493A3C583C5F0C58346
:1008A400C8C582C8F0A3C583C5F0C583C8C582C8BE
:0108B4002221
:0908B500E0FBA3E0FAA3E0F92244
:0908BE00EBF0A3EAF0A3E9F0223B
:00000001FF
