:0E1C3700310033003500370039002B34300007
:02947800794138
:02947C000000EE
:029439007D0DA7
:029445007D2385
:029453007D3961
:029461007D4F3D
:02946F007D6519
:029486007D7BEC
:03D6B40002F3532B
:05949B0002F44800008E
:03BE9C0002F1644C
:04D5B00002F1230061
:04D4B00012F1140061
:03DF440002F07D6B
:038AFF0002F0572B
:03E44F0012F05771
:04CCC40012F06E00FC
:01DAE2002221
:10F0510005788578F03275780175D70075D48F758C
:10F06100D3FF9010467488F0A3E4F0E42275780091
:10F071007F289010467480F0A3E4F022900701E00D
:10F08100700302AB39900A06E0F5F0900A07E0F848
:10F09100E5F0940C0303F5F0E80303543F45F0F564
:10F0A100F0C39432400C94A740107554C0755507B5
:10F0B100800E7554007555F880067554FF7555FF1F
:10F0C100E5F075F00AA4ABF075F00AA4C0F0900960
:10F0D10000741AF0EB7D7E11E4D0E07D8611E474BA
:10F0E1000A7D8E90F0FEA982AA8323C339F9E43AFE
:10F0F100FA7BFF900900E0F55312BAB222300031D9
:10F101000032003300340035003600370038003952
:10F11100002500E50E900A06F0E50F900A07F0942D
:10F121002222900F30E070228B4CAA0512D5B490A8
:10F131000F307401F0754D01754E07754F007B104E
:10F141007F177D009007507401F08B4CAA0502D502
:10F15100B47D007F177B10753C01753D07753E003E
:10F1610002DBC57F9912ECAC900379E0FF12ECACA5
:10F17100E5706014E576700F757601900379E0B45F
:10F181000E1B757000801022900379E0B41308758E
:10F191007001757601806E90037902BE9FB40C10E8
:10F1A10031F405E08575F031E331FE12F1528055FD
:10F1B100B40D1031F415E08575F031E331FE12F133
:10F1C100528042B4120CE5710475F00331E3F5711C
:10F1D1008033B4110CE5711475F00331E3F57180DE
:10F1E1002422F8B4FF04E5F01422C395F04002E4B0
:10F1F10022E822758307857182E0F5722275830703
:10F20100857182F0227550007551007B407D407FF1
:10F211000012DB7890F287AA83A9827BFF7554FEE6
:10F221007555397D0A75534612BAB231F490F2938D
:10F23100E57175F012A4C33582F582E5F02583F5F9
:10F2410083E493F573A3E493F574A3E493F575A3B1
:10F25100AA83A9827BFF7554FF7555FF7D137553F2
:10F261005812BAB2AA73A974E57275F00DA4C33924
:10F27100F9E5F03AFA7BFF7554C07555077D1A75AB
:10F28100536A12BAB2226E69636D6F64204D656E66
:10F291007500F2C902302E536967426172205374BE
:10F2A100796C6500F2E302312E4261747420446985
:10F2B10073706C617900F2FD05322E20427269672C
:10F2C10068746E6573732000536F6C69642020202D
:10F2D10020202020005365676D656E7465642020D1
:10F2E100200049636F6E2020202020202020005024
:10F2F100657263656E7461676520200044696D6D98
:10F3010065737420202020200044696D2020202076
:10F311002020202020004D656469756D202020206B
:10F32100202000427269676874202020202020007C
:10F33100427269676874657374202020009006002A
:10F34100E0705E04F07551007B067D117F0012F3C1
:10F35100A322C266900379E07003757600E525303B
:10F36100E3DB30E43C7F9B12C4F79001B4E0F5F09D
:10F371009001B5E064FFC335F04008C394DC50064A
:10F38100E48003C394DC75F0BBA4E5F025E0F551FE
:10F391007B067D117F0012F3A3900600E4F002D6F4
:10F3A100BC228F4D8D4E8B4F7F2A12EED6AF4D1260
:10F3B100EFA1AF4D12EFA17F2B12EED6AF4E12EFA0
:10F3C100A1AF4E12EFA17F2C12EED6E4F552E55219
:10F3D100C2D7954F5070854D53755000E553B551C7
:10F3E10003435001C2D794A05058E550704985534A
:10F3F100F0900700E0600320F13DE5F0C3943F5039
:10F4010012E55375F080A4E5F02323234407FD7F23
:10F41100C08028E553C3943F75F080A4E5F0C39400
:10F421001F5004E5F08002741F641F0303F854C0E9
:10F43100FFE844F8FD80047D007F0012ED5505537F
:10F44100809A0552808822C2CA753A0A900600E461
:07F45100F07570000294A0A9
:00000001FF
