:0A6B120004070A0D101316191C1FCA
:04E6A30012F2FC0073
:0376020000000085
:0383240012F16DE6
:0383340002F1480B
:03830D0012F16307
:0182C30005B5
:0182CD0005AB
:035E0D0002F2702E
:0E0122003100330035003700390034302B0037
:0282D5007D0426
:0282E1007D1608
:0282EF007D28E8
:0282FD007D3AC8
:02830B007D4CA7
:028322007D5F7D
:012D14000AB4
:012D1600D1EB
:04D2A80002F3E500A8
:036E280002F4145D
:03D1410012F43DA8
:0361CA0012F43498
:042A390002F0CE00D9
:10240000322F363435383A3C403E443635494C4C10
:10241000515356595D6163656C6D403244314733A9
:1024200048364A384D3C4E3C523E57999D465DA930
:10243000B04E3036372E30003036392E330030373C
:10244000312E39003037342E34003037372E3000FB
:102450003037392E37003038322E35003038352EAF
:1024600034003038382E35003039312E35003039CF
:10247000342E38003039372E34003130302E3000D1
:102480003130332E35003130372E32003131302E9D
:1024900039003131342E38003131382E38003132A4
:1024A000332E30003132372E33003133312E3800A5
:1024B0003133362E35003134312E33003134362E5F
:1024C00032003135312E34003135362E370031357A
:1024D000392E38003136322E32003136352E350065
:1024E0003136372E39003137312E33003137332E24
:1024F00038003137372E33003137392E3900313833
:10250000332E35003138362E32003138392E39002D
:102510003139322E38003139362E36003139392EE4
:1025200035003230332E35003230362E3500323120
:10253000302E37003231382E31003232352E37000E
:102540003232392E31003233332E36003234312ECE
:1025500038003235302E33003235342E31003030F1
:10256000302E3000000000010000000200000005D5
:102570000000000A000000190000003200000064A2
:10258000534200414D00464D0030003100320033CF
:0F259000003400350036003700380039002500D0
:04D0990012F0BF00D2
:03DDB60012F03B2D
:01F7FF000009
:0830B8007F007E3F7DAB7C012F
:086A22007F007E3F7DAB7C018B
:0879B3007F007E3F7DAB7C01EB
:0679CC007E3F7DAB7C0153
:10F03B00900705E070030299A5900A06E0F5F090A1
:10F04B000A07E0F8E5F0940C0303F5F0E80303542A
:10F05B003F45F0F5F0C39432400C94A74010755423
:10F06B00F575555F800E7554FF75555580067554B3
:10F07B00FF7555FFE5F075F00AA4ABF075F00AA427
:10F08B00C0F0900900741AF0EB7D6611A5D0E07DFD
:10F09B006E11A5740A7D7611A522902589A982AAE5
:10F0AB008323C339F9E43AFA7BFF900900E0F55367
:10F0BB0012AECD22E50E900A06F0E50F900A07F08E
:10F0CB00942222C0E0900702E0602FD0F0C0E090C5
:10F0DB0004657402F09004A37407F090014BE054A4
:10F0EB000F4470F0D0E01490256475F004A4C33580
:10F0FB0082F582E5833400F58322D0E025E025E01C
:10F10B00022A3D9002F5E0C0E0A3E0C0E09002C30C
:10F11B00E0C0E09002E5E0C0E012C8759002F5E0B7
:10F12B00FDA3E0FB9002E5D0E0F09002C3D0E0F04D
:10F13B009002F6D0E0F09002F5D0E0F0229007506C
:10F14B007401F07550FF7551FF7B017D0F7F00122D
:10F15B00D4A9C269E40283377544F075453F12CDDB
:10F16B00142285374315437544FF75452212CD1480
:10F17B00227F6812F10EED548070047F0280317F84
:10F18B006912F10EED548070047F0180239006000C
:10F19B00E0601C900600E4F090255EAA83A9827BB8
:10F1AB00FF7D607543667544EF7545EF12CD1422F4
:10F1BB00900600EFF0EDBF011A540F900601F0A37B
:10F1CB00EBF07F6A12F10E900603ED540FF0A3EBF8
:10F1DB00F08009541F900601F0A3EBF0900600E0BD
:10F1EB00B40202800A4155EBC398FBED99FD2290C6
:10F1FB000602E0FB900601E0FD7905784E31F279CD
:10F20B0000C2F0902400E582C335F0F5827400351E
:10F21B0083F583E493F831F2400805F0E5F0B4325E
:10F22B00E222E5F075F006A4902432C33582F58214
:10F23B00E5F03583F583AA83A9827BFF7D60754357
:10F24B00667544EF7545EF12CD1422900750E060C0
:10F25B0011E4F07550007551007B087D107F001292
:10F26B00D4A9025E73900701E0700790014AE05445
:10F27B00EFF0E52530E1D4E52730E3E6C2E3F527EF
:10F28B00900703E060069002F5025E1D900704E014
:10F29B0060099004FFE0700312F17C7F6512F10EA0
:10F2AB00EB547FF5F07465C395F05001E4C0E07F3B
:10F2BB006712F10EED5401F9D0E0F889F0EBC33889
:10F2CB00500205F030F10574FF75F00154FE033068
:10F2DB00F002448094325001E4900750F0F5517BDA
:10F2EB00067D117F0012F7539002F5025E1D02F3AB
:10F2FB00698F4D900703E070F5BF4702802EBF3D2D
:10F30B00028017BF730280028054900700E06005F3
:10F31B00EB4410800254EFFB8044900700E0B402F2
:10F32B0005E4FBFD80387D2A7BAB8032900700E043
:10F33B00702F8D4E12E6A77D2A7BAB7F3D8F4D8DB7
:10F34B004E12E6A77F7312F10EEB54EFFB7F738F18
:10F35B004D8D4E12E6A712F3B0D0E0D0E0228D4EC9
:10F36B0022C0E0B401047D6780027D657B408D4E39
:10F37B0012E6A7D0E0B402067D007B0080047D2A54
:10F38B007BAB7F3D8F4D8D4E12E6A77F7312F10E37
:10F39B00EB4410FB7F738F4D8D4E12E6A712F3B02B
:10F3AB00D0E0D0E0229004FFE0702E7F4712F10EE8
:10F3BB00ED20E20420E0092220E10A90258080085C
:10F3CB009025868003902583AA83A9827BFF124A0E
:10F3DB00967D5275531A12AECD22900F30E07022EB
:10F3EB008B4CAA0512D2AC900F307401F0754D0105
:10F3FB00754E07754F007B107F1A7D009007507478
:10F40B0001F08B4CAA0502D2AC900F31E06014E4F2
:10F41B00F07D007F1A7B10753C01753D07753E0032
:10F42B0012D8ED5380F0026E2B9004FFE4F09004A1
:10F43B0079229004FFE06007146019900479229000
:10F44B000479E0B4130D9004FF7401F012F4C9D0E9
:10F45B00E0D0E022900479E0B40E099004FFE4F0D0
:10F46B0090047922B40C0674FF9199801CB40D069C
:10F47B00740191998013B40B10900E10E004B40634
:10F48B0001E4900E10F012F4C9D0E0D0E022F5F0B8
:10F49B00900E00E0FA900E04E0F9900E06E0C335F2
:10F4AB00F0B4FF04E914800689F0B5F001E475832C
:10F4BB00078A82F0EA91C9900F317401F0227550DE
:10F4CB00007551007B8C7D147F0012D4A9900E1017
:10F4DB00E0FF90F5F075F012A4C33582F582E5F0EC
:10F4EB003583F583E493F9A3E493F8A3E493FAA3A8
:10F4FB00AC83AB827583078F82E0FD900E00EFF03B
:10F50B00A3ECF0A3EBF0A3EAF0A3F0A3EDF0A3F0D0
:10F51B00A3E9F0A3E8F0A37420F0900E01E0FAA3A6
:10F52B00E0F97BFF7554FF7555FF7D0075531C1279
:10F53B00AECD900E03E070012214F0900E05E0C0EA
:10F54B00E014F0900E04E0C39406404B900E07E0DD
:10F55B00FAA3E0F9C3340DF05006900E07E004F067
:10F56B00900E09E0C3240AF0F543C0E07BFF75441D
:10F57B00FF7545FF7D1412CD14D0E0F543D0E0703C
:10F58B00B17BFF7544FF7545FF7D0290F5EEAA83B5
:10F59B00A98212CD14A13D900E07E0FAA3E0F9C3A6
:10F5AB00340DF05006900E07E004F0900E09E0C306
:10F5BB002410F0F553C0E07BFF7554FF7555FF7DAC
:10F5CB001412AECDD0E0F553D0E070147BFF755420
:10F5DB00FF7555FF7D0290F5EEAA83A98212AECD81
:10F5EB00A13D223E00F65C03302E414D2F55534278
:10F5FB00204F7672202000F68302312E4B696C6C03
:10F60B00204B696C6C65722000F69D08322E4669A2
:10F61B006E65205374657020202000F70502332E91
:10F62B004D6F6420486F6F6B7320202000F71F0213
:10F63B00342E546F6E65204D6F6E69746F7200F7C8
:10F64B003902352E4261747420446973706C617990
:10F65B00004F464620202020202020202000414D16
:10F66B002020202020202020202000555342202025
:10F67B00202020202020200050726576656E74209B
:10F68B004B696C6C004E6F726D616C2020202020DA
:10F69B0020004F4646202020202020202020003014
:10F6AB002E3031204B20202020202000302E3032D5
:10F6BB00204B20202020202000302E3035204B20C6
:10F6CB00202020202000302E3130204B20202020E5
:10F6DB00202000302E3235204B20202020202000EF
:10F6EB00302E3530204B20202020202000312E3092
:10F6FB0030204B20202020202000416C6C6F776540
:10F70B0064202020202000426C6F636B65642020F6
:10F71B00202020004F464620202020202020202083
:10F72B0000456E61626C65642020202020004963D7
:10F73B006F6E2020202020202020005065726365F2
:10F74B006E746167652020008F4D8D4E8B4F7F2A25
:10F75B0012EECCE54D2420FF12EF7EE54D2420FF69
:10F76B0012EF7E7F2B12EECCAF4E12EF7EAF4E120E
:10F77B00EF7E7F2C12EECCE4F552E552C2D7954FBB
:10F78B00503C854D53755000E553B44F0343500126
:10F79B00B55103435002C2D79480501EE550600907
:10F7AB0014600C7F007D00800A7FF07D3F80047F1A
:0FF7BB00FF7D0812ED07055380CE055280BC225A
:00000001FF
