:0A69010044474A4D505356595C5F5D
:017F7100E926
:017F73007D90
:04E6470012F10300C9
:0375A400000000E4
:0382C50012F04173
:0382D50002F0278D
:0382AE0012F03794
:018264000514
:01826E00050A
:035DDA0002F06272
:0E0122003100330035003700390034302B0037
:028276007D0485
:028282007D1667
:028290007D2847
:02829E007D3A27
:0282AC007D4C07
:0282C3007D5FDD
:012D12000AB6
:012D1400D1ED
:014ABE000AED
:014AC000D124
:014F3A000A6C
:014F3C00D1A3
:016CFC000A8D
:016CFE00D1C4
:017931000A4B
:01793300D182
:04D2420002F24700AD
:036DCA0002F27062
:03D0DB0012F299B5
:03618D0012F2907B
:042A390002EFE000C8
:09231100D0F0D0F0D0F0D0F022A1
:10EFE000C0E0900702E0601AD0F01475F004A4F5B8
:10EFF000F090F00BE582C335F0F58274003583F5AF
:10F000008322D0E025E025E0022A3D000000FA003E
:10F01000000002000000050000000A0000001900C6
:10F02000000032000000647550FF7551FF7B017DC8
:10F030000F7F0012D443227544F075453F12CCAEC9
:10F040002285374315437544FF75452212CCAE2205
:10F050007550007551007B087D107F0012D443026B
:10F060005E40900701E0700790014AE054EFF0E540
:10F070002530E1DCE52730E3E6C2E3F5279002F531
:10F08000E0C0E0A3E0C0E07F6512C80F9002F6E0A8
:10F09000547FF5F09002F6D0E0F09002F5D0E0F069
:10F0A0007465C395F05001E4C0E09002F5E0C0E063
:10F0B000A3E0C0E07F6712C80F9002F5E05401F9A9
:10F0C0009002F6E0FA9002F6D0E0F09002F5D0E07F
:10F0D000F0D0E0F889F0EAC338500205F030F105CD
:10F0E00074FF75F00154FE0330F0024480943250F6
:10F0F00001E4F5517B067D117F0012F5299002F5A0
:10F10000025DEA8F4DBF4702802EBF3D028017BFD0
:10F11000730280028070900700E06005EB4410806D
:10F120000254EFFB8060900700E0B40205E4FBFDB1
:10F1300080547D2A7BAB804E900700E0704B8D4E53
:10F1400012E64B7D2A7BAB7F3D8F4D8D4E12E64BF9
:10F150009002F5E0C0E0A3E0C0E07F7312C80F901A
:10F1600002F5E0FDA3E054EFFB7F738F4D8D4E90D1
:10F1700002F6D0E0F09002F5D0E0F012E64B12F18A
:10F18000E9D0E0D0E0228D4E22C0E0B401047D67DA
:10F1900080027D657B408D4E12E64BD0E0B40206C6
:10F1A0007D007B0080047D2A7BAB7F3D8F4D8D4EA3
:10F1B00012E64B9002F5E0C0E0A3E0C0E07F7312DE
:10F1C000C80F9002F5E0FDA3E04410FB7F738F4D64
:10F1D0008D4E9002F6D0E0F09002F5D0E0F012E60D
:10F1E0004B12F1E9D0E0D0E0229004FFE0704B90A8
:10F1F00002F5E0C0E0A3E0C0E07F4712C80F900234
:10F20000F5E0F5F09002F6D0E0F09002F5D0E0F0F5
:10F21000E5F020E20420E0092220E10A90F23B80A0
:10F220000890F243800390F23FAA83A9827BFF12E9
:10F2300047827D5275531A12AE67225553420041E0
:10F240004D2000464D2000900F30E0701C8B4CAAE2
:10F250000512D246900F307401F0754D01754E07BE
:10F26000754F007B107F1A7D008B4CAA0502D24699
:10F27000900F31E06014E4F07D007F1A7B10753C44
:10F2800001753D07753E0012D8D75380F0026DCD51
:10F290009004FFE4F0900478229004FFE0600714EB
:10F2A000601990047822900478E0B4130D9004FF64
:10F2B0007401F012F325D0E0D0E022900478E0B49D
:10F2C0000E099004FFE4F090047822B40C0674FF59
:10F2D00051F5801CB40D06740151F58013B40B1068
:10F2E000900E10E004B40301E4900E10F012F32528
:10F2F000D0E0D0E022F5F0900E00E0FA900E04E0AD
:10F30000F9900E06E0C335F0B4FF04E914800689D5
:10F31000F0B5F001E47583078A82F0EA7125900F59
:10F32000317401F0227550007551007B8C7D147F83
:10F330000012D443900E10E0FF90F44C75F012A42C
:10F34000C33582F582E5F03583F583E493F9A3E4D0
:10F3500093F8A3E493FAA3AC83AB827583078F82FF
:10F36000E0FD900E00EFF0A3ECF0A3EBF0A3EAF0C9
:10F37000A3F0A3EDF0A3F0A3E9F0A3E8F0A37420B9
:10F38000F0900E01E0FAA3E0F97BFF7554FF75558C
:10F39000FF7D0075531C12AE67900E03E0700122D2
:10F3A00014F0900E05E0C0E014F0900E04E0C39459
:10F3B00006404B900E07E0FAA3E0F9C3340DF0507D
:10F3C00006900E07E004F0900E09E0C3240AF0F561
:10F3D00043C0E07BFF7544FF7545FF7D1412CCAE42
:10F3E000D0E0F543D0E070B17BFF7544FF7545FF79
:10F3F0007D0290F44AAA83A98212CCAE6199900E44
:10F4000007E0FAA3E0F9C3340DF05006900E07E0D0
:10F4100004F0900E09E0C32410F0F553C0E07BFF28
:10F420007554FF7555FF7D1412AE67D0E0F553D0CB
:10F43000E070147BFF7554FF7555FF7D0290F44A10
:10F44000AA83A98212AE676199223E00F48003303C
:10F450002E20414D2F555342204F76722000F4A7A5
:10F4600002312E204B696C6C204B696C6C6572000C
:10F47000F4C108322E2046696E6520537465700011
:10F480004F464620202020202020202000414D20D3
:10F490002020202020202020200055534220202002
:10F4A0002020202020200050726576656E74204B4D
:10F4B000696C6C004E6F726D616C202020202020E2
:10F4C000004F464620202020202020202000302EE3
:10F4D0003031204B20202020202000302E303220C0
:10F4E0004B20202020202000302E3035204B2020A3
:10F4F0002020202000302E3130204B2020202020C2
:10F500002000302E3235204B2020202020200030BB
:10F510002E3530204B20202020202000312E30306E
:10F52000204B202020202020008F4D8D4E8B4F7FA0
:10F530002A12EE70E54D2420FF12EF22E54D242023
:10F54000FF12EF227F2B12EE70AF4E12EF22AF4E62
:10F5500012EF227F2C12EE70E4F552E552C2D795DD
:10F560004F503C854D53755000E553B44F03435005
:10F5700001B55103435002C2D79480501EE550603C
:10F580000914600C7F007D00800A7FF07D3F8004BD
:10F590007FFF7D0812ECAB055380CE055280BC2264
:00000001FF
