:0A69010044474A4D505356595C5F5D
:017F7100E926
:017F73007D90
:04E6470012F0BC0011
:0375A400000000E4
:0382C50012EFFABB
:0382D50002EFE0D5
:0382AE0012EFF0DC
:018264000514
:01826E00050A
:035DDA0002F01BB9
:0E0122003100330035003700390034302B0037
:028276007D0485
:028282007D1667
:028290007D2847
:02829E007D3A27
:0282AC007D4C07
:0282C3007D5FDD
:012D12000AB6
:012D1400D1ED
:014ABE000AED
:014AC000D124
:014F3A000A6C
:014F3C00D1A3
:016CFC000A8D
:016CFE00D1C4
:017931000A4B
:01793300D182
:04D2420002F20000F4
:036DCA0002F229A9
:03D0DB0012F252FC
:03618D0012F249C2
:10EFE0007550FF7551FF7B017D0F7F0012D44322C6
:10EFF0007544F075453F12CCAE22853743154375F5
:10F0000044FF75452212CCAE227550007551007B2D
:10F01000087D107F0012D443025E40900701E0702B
:10F020000790014AE054EFF0E52530E1DCE52730B8
:10F03000E3E6C2E3F5279002F5E0C0E0A3E0C0E01C
:10F040007F6512C80F9002F6E0547FF5F09002F64B
:10F05000D0E0F09002F5D0E0F07465C395F0500177
:10F06000E4C0E09002F5E0C0E0A3E0C0E07F6712FA
:10F07000C80F9002F5E05401F99002F6E0FA900210
:10F08000F6D0E0F09002F5D0E0F0D0E0F889F0EAB8
:10F09000C338500205F030F10574FF75F00154FEDD
:10F0A0000330F002448094325001E4F5517B067D38
:10F0B000117F0012F4159002F5025DEA8F4DBF47F3
:10F0C00002802EBF3D028017BF73028002807090C5
:10F0D0000700E06005EB4410800254EFFB80609075
:10F0E0000700E0B40205E4FBFD80547D2A7BAB8081
:10F0F0004E900700E0704B8D4E12E64B7D2A7BABA5
:10F100007F3D8F4D8D4E12E64B9002F5E0C0E0A39F
:10F11000E0C0E07F7312C80F9002F5E0FDA3E05459
:10F12000EFFB7F738F4D8D4E9002F6D0E0F0900292
:10F13000F5D0E0F012E64B12F1A2D0E0D0E0228D43
:10F140004E22C0E0B401047D6780027D657B408D66
:10F150004E12E64BD0E0B402067D007B0080047DB9
:10F160002A7BAB7F3D8F4D8D4E12E64B9002F5E032
:10F17000C0E0A3E0C0E07F7312C80F9002F5E0FD8D
:10F18000A3E04410FB7F738F4D8D4E9002F6D0E0CC
:10F19000F09002F5D0E0F012E64B12F1A2D0E0D0F0
:10F1A000E0229004FFE0704B9002F5E0C0E0A3E0A5
:10F1B000C0E07F4712C80F9002F5E0F5F09002F62C
:10F1C000D0E0F09002F5D0E0F0E5F020E20420E09D
:10F1D000092220E10A90F1F4800890F1FC8003906C
:10F1E000F1F8AA83A9827BFF1247827D5275531AD8
:10F1F00012AE672255534200414D2000464D20007B
:10F20000900F30E0701C8B4CAA0512D246900F3044
:10F210007401F0754D01754E07754F007B107F1A14
:10F220007D008B4CAA0502D246900F31E06014E4B9
:10F23000F07D007F1A7B10753C01753D07753E001F
:10F2400012D8D75380F0026DCD9004FFE4F0900403
:10F2500078229004FFE060071460199004782290EF
:10F260000478E0B4130D9004FF7401F012F2DED0C4
:10F27000E0D0E022900478E0B40E099004FFE4F0BE
:10F2800090047822B40C0674FF51AE801CB40D06B5
:10F29000740151AE8013B40B10900E10E004B40250
:10F2A00001E4900E10F012F2DED0E0D0E022F5F092
:10F2B000900E00E0FA900E04E0F9900E06E0C335DF
:10F2C000F0B4FF04E914800689F0B5F001E4758319
:10F2D000078A82F0EA51DE900F317401F0227550F6
:10F2E000007551007B8C7D147F0012D443900E106A
:10F2F000E0FF90F3B075F012A4C33582F582E5F01B
:10F300003583F583E493F9A3E493F8A3E493FAA394
:10F31000AC83AB827583078F82E0FD900E00EFF027
:10F32000A3ECF0A3EBF0A3EAF0A3F0A3EDF0A3F0BD
:10F33000A3E9F0A3E8F0A37420F0900E01E0FAA393
:10F34000E0F97BFF7554FF7555FF7D0075531C1266
:10F35000AE67900E03E0605514F0900E05E0C0E03B
:10F3600014F0900E07E0FAA3E0F9C3340DF0500654
:10F37000900E07E004F0900E09E0C32410F0F5535E
:10F38000C0E07BFF7554FF7555FF7D1412AE67D04A
:10F39000E0F553D0E070BB7BFF7554FF7555FF7DE2
:10F3A0000290F3AEAA83A98212AE6780A5223E0026
:10F3B000F3D403302E20414D2F555342204F767207
:10F3C0002000F3FB02312E204B696C6C204B696CE2
:10F3D0006C6572004F4646202020202020202020EF
:10F3E00000414D20202020202020202020005553A7
:10F3F00042202020202020202020005072657665A9
:10F400006E74204B696C6C004E6F726D616C2020C5
:10F4100020202020008F4D8D4E8B4F7F2A12EE70C2
:10F42000E54D2420FF12EF22E54D2420FF12EF22AC
:10F430007F2B12EE70AF4E12EF22AF4E12EF227FF3
:10F440002C12EE70E4F552E552C2D7954F503C8530
:10F450004D53755000E553B44F03435001B551036C
:10F46000435002C2D79480501EE550600914600CCE
:10F470007F007D00800A7FF07D3F80047FFF7D0854
:0CF4800012ECAB055380CE055280BC227C
:00000001FF
