:0E1C3700310033003500370039002B34300007
:02947800794138
:02947C000000EE
:029439007D0DA7
:029445007D2385
:029453007D3961
:029461007D4F3D
:02946F007D6519
:029486007D7BEC
:03D6B40002F53547
:05949B0002F6FC0000D8
:03BE9C0002F23679
:04D5B00002F1E300A1
:04D4B00012F1D400A1
:03DF440002F107E0
:04ECC50002F0E80071
:038AFF0002F0ADD5
:04CCC40012F0C700A3
:03E44F0012F0AD1B
:03DAE20002F0A3AC
:03A6610012F051A3
:01D9040043DF
:10F05100D2C312D8FD2290F0437405F090F120E460
:10F06100F0A3E04401F090F1237401F090F129E064
:10F071004401F090F122E054FEF0E490F12AF09086
:10F08100F127E04401F0E490F131F074C890F130DF
:10F09100F0E490F141F090F140F090F126E044016C
:10F0A100F022E577700302DAE502DB29757701903A
:10F0B1000704E064FFF5F0740625F090F4FAE49398
:10F0C1007FFF11CEE422E4F577FF7F282290F1261D
:10F0D100E054FEF090F140EFF090F126E04401F0B1
:10F0E100222CCFA00FADF8900702E06012142390FC
:10F0F100F0E212F730E493C33DFDA3E4933FFF8BAD
:10F1010082AB0702ECC9900701E0700302AB3990B2
:10F111000A06E0F5F0900A07E0F8E5F0940C030325
:10F12100F5F0E80303543F45F0F5F0C39432400C89
:10F1310094A740107554C0755507800E755400751D
:10F1410055F880067554FF7555FFE5F075F00AA472
:10F15100ABF075F00AA4C0F0900900741AF0EB7DD1
:10F161007E316ED0E07D86316E740A7D8E90F1889D
:10F17100A982AA8323C339F9E43AFA7BFF900900F3
:10F18100E0F55312BAB222300031003200330034BC
:10F191000035003600370038003900250053002BB8
:10F1A1003030002B3130002B3230002B3330002B2C
:10F1B1003430002B3630002B4F4C002B4131002BCB
:10F1C1004132002B4133002B4134002B4135002BC0
:10F1D100413600E50E900A06F0E50F900A07F0941B
:10F1E1002222900F30E0703412F21D900F30740122
:10F1F100F0754D01754E07754F007B207F117D0025
:10F2010012F21D90071FE0B4AF012274AFF0E47554
:10F21100830779008982F009B91FF9228B4CAA056D
:10F2210002D5B47D007F117B20753C01753D0775CA
:10F231003E0002DBC57F9912ECAC900379E0FF122E
:10F24100ECACE5706014E576700F7576019003798A
:10F25100E0B40E1B757000801022900379E0B413A6
:10F2610008757001757601806E90037902BE9FB4B6
:10F271000C1051C605E08575F051B551D012F2243C
:10F281008055B40D1051C615E08575F051B551D0BA
:10F2910012F2248042B4110CE5710475F00551B5E8
:10F2A100F5718033B4120CE5711475F00551B5F5A3
:10F2B10071802422F8B4FF04E5F01422C395F040D4
:10F2C10002E422E822758307857182E0F5722275D6
:10F2D1008307857182F0227550007551007B407D56
:10F2E100407F0012DB7890F369AA83A9827BFF75C6
:10F2F10054FE7555397D0A75534612BAB251C690FE
:10F30100F375E57175F01212F723E493F573A3E435
:10F3110093F574A3E493F575E572C395754012E412
:10F32100F572A983AA82758307857182F089838A20
:10F3310082A3AA83A9827BFF7554FF7555FF7D13B4
:10F3410075535812BAB2AA73A974E57275F00DA477
:10F35100C339F9E5F03AFA7BFF7554C07555077D5D
:10F361001A75536A12BAB2226E69636D6F64204DC9
:10F37100656E7500F3CF03302E53696742617220C9
:10F381005374796C6500F3F603312E426174742075
:10F39100446973706C617900F41D04322E46726504
:10F3A100712041646A7573742000F4510D332E533A
:10F3B1004D657465722043616C696200F4510634D5
:10F3C1002E4272696768746E657373202000536FF3
:10F3D1006C696420202020202020005365676D6522
:10F3E1006E74656420202000532D4D657465722074
:10F3F10050726F200049636F6E2020202020202052
:10F40100200050657263656E746167652020005647
:10F411006F6C746167652020202020004F464620D4
:10F421002020202020202020002D323030204D4867
:10F431007A20202020002B3634204D487A202020AD
:10F441002020002D3330204D487A2020202020001C
:10F451002B3620202020202020202020002B35208A
:10F46100202020202020202020002B34202020209C
:10F47100202020202020002B33202020202020208D
:10F48100202020002B32202020202020202020207E
:10F49100002B31202020202020202020200030207F
:10F4A10020202020202020202020002D312020205D
:10F4B10020202020202020002D322020202020204C
:10F4C10020202020002D332020202020202020203B
:10F4D10020002D3420202020202020202020002D3D
:10F4E1003520202020202020202020002D36202003
:10F4F100202020202020202000FFD7AF87552390F7
:10F501000600E060012204F075500075510090077B
:10F5110000E0B402067B107D0780047B067D117F2D
:10F521000012DB78755500B1FE22900703E023231A
:10F5310024C4FF22C266900379E07003757600E56A
:10F541002530E3BB30E4347F9B12C4F7B12B90012B
:10F55100B4E0F5F09001B5E064FFC335F04007C3B6
:10F561009F5005E48002C39FF555B1FEE553B402F7
:10F5710002B17D900600E4F002D6BC22E555C0E060
:10F5810090F19EAA83A9827BFF7D737554FF755507
:10F59100FF75530812BAB2D0E075F019A4E5F0C3B3
:10F5A100C0E0940A400375F009E5F02390F188C3A7
:10F5B1003582F9E43583FA7BFF7D7B7554FF755500
:10F5C100FF12BAB2D0E0C3940A400FF5F09406508E
:10F5D1000405F0800875F006800375F000E5F0235E
:10F5E1002390F1A0C33582F9E43583FA7BFF754599
:10F5F100007546F87D8375440A12D2B122754F1702
:10F60100900700E0F553B4021075506F754D067503
:10F611004E0775F0C9E55580147550A0754D0075FC
:10F621004E1175F08CE55525E0500274FEA485F06D
:10F63100527F2A12EED6AF4D12EFA1AF4D12EFA1BC
:10F641007F2B12EED6AF4E12EFA1AF4E12EFA17F7C
:10F651002C12EED6854D517554FF755600E551B506
:10F661005002806EC395524003755601E553B402B2
:10F671002BD1EE5052E556701DE551C3942A40102E
:10F68100942440067DF87F0080417DFF7FC0803B50
:10F691007D077FC080357D187FC6802FE556702796
:10F6A100E5536005E55120E11EE551D1DD2323231A
:10F6B100FD749FC39551D1DD0303F5F054074DFD52
:10F6C100E5F054C0FF80047D007F0012ED55055127
:10F6D100808B054EE54EB54F0122C13275F064A411
:10F6E100E5F0C394205003E5F022741F22C30554B2
:10F6F100E554B40603E4F554940322C2CA753A0AE8
:10F70100900600E4F07570000294A0900700E0B448
:10F71100020280E77A1C7937029436853F5512F54B
:10F72100FE22A4C33582F582E5F03583F58322C339
:0BF731003582F582E5833400F5832269
:0394B200000000B7
:0394EA0002F71C6A
:0494320002F70C0031
:0194CB00237D
:0194E2003B4E
:0194E9006A18
:00000001FF
