:0A6B120004070A0D101316191C1FCA
:04E6A30012F35C0012
:03760200120CEE79
:0383240012F1CD86
:0383340002F1A8AB
:03830D0012F1C3A7
:0182C30005B5
:0182CD0005AB
:035E0D0002F2D0CE
:0E0122003100330035003700390034302B0037
:0282D5007D0426
:0282E1007D1608
:0282EF007D28E8
:0282FD007D3AC8
:02830B007D4CA7
:028322007D5F7D
:012D14000AB4
:012D1600D1EB
:04D2A800020DAE00C5
:036E280002F4D49D
:03BD9300000000AD
:03D1410012F50ED6
:0361CA001227EDAC
:027DF60000800B
:042A390002F12E0078
:0110AD000042
:100CEE00900720E06006A3E0F9A3E0FA02AECD88FB
:100CFE00828983E0F5F0A3E00A8A828B83F0E5F027
:100D0E001A8A82F02290014BE0547003032450F5AE
:100D1E0082E434BBF583A3A3E493FFA3E493FE2202
:100D2E009007938003900797E02EF01582E03FF036
:100D3E001582E03400F01582E03400F02290079323
:100D4E008003900797E0C39EF01582E09FF0158216
:100D5E00E09400F01582E09400F022757100900787
:100D6E0007E0601923F5F08A838982E025F0C394A9
:100D7E003A400724307571018002243AF012A5B76B
:100D8E00E571600590258B80039027EBAA83A982DD
:100D9E007BFF7D0112A5B72212A5B79027EB80EC41
:100DAE00900F30E070228B4CAA0512D2AC900F300F
:100DBE007401F0754D01754E07754F007B107F1A4B
:0F0DCE007D009007507401F08B4CAA0502D2AC47
:0129C4000012
:10240000322F363435383A3C403E443635494C4C10
:10241000515356595D6163656C6D403244314733A9
:1024200048364A384D3C4E3C523E57999D465DA930
:10243000B04E3036372E30003036392E330030373C
:10244000312E39003037342E34003037372E3000FB
:102450003037392E37003038322E35003038352EAF
:1024600034003038382E35003039312E35003039CF
:10247000342E38003039372E34003130302E3000D1
:102480003130332E35003130372E32003131302E9D
:1024900039003131342E38003131382E38003132A4
:1024A000332E30003132372E33003133312E3800A5
:1024B0003133362E35003134312E33003134362E5F
:1024C00032003135312E34003135362E370031357A
:1024D000392E38003136322E32003136352E350065
:1024E0003136372E39003137312E33003137332E24
:1024F00038003137372E33003137392E3900313833
:10250000332E35003138362E32003138392E39002D
:102510003139322E38003139362E36003139392EE4
:1025200035003230332E35003230362E3500323120
:10253000302E37003231382E31003232352E37000E
:102540003232392E31003233332E36003234312ECE
:1025500038003235302E33003235342E31003030F1
:10256000302E3000000000010000000200000005D5
:102570000000000A000000190000003200000064A2
:10258000534200414D00464D0030003100320033CF
:102590000034003500360037003800390025003E91
:1025A0000007265603302E414D2F555342204F76BB
:1025B00072202000267D02312E4B696C6C204B6905
:1025C0006C6C65722000269708322E46696E652075
:1025D000537465702020200026FF02332E4D6F6457
:1025E00020486F6F6B7320202000271902342E546F
:1025F0006F6E65204D6F6E69746F72002733023500
:102600002E4261747420446973706C617900274DA7
:1026100002362E536967626172205374796C6500CB
:10262000276705372E467265712041646A75737499
:10263000200027A802382E574C20436F707920467F
:102640007265710027C203392E505454204F7074A4
:10265000696F6E7320004F464620202020202020E6
:10266000202000414D20202020202020202020005C
:102670005553422020202020202020200050726529
:1026800076656E74204B696C6C004E6F726D616C78
:10269000202020202020004F4646202020202020DF
:1026A00020202000302E3031204B202020202020E0
:1026B00000302E3032204B20202020202000302ED1
:1026C0003035204B20202020202000302E3130209B
:1026D0004B20202020202000302E3235204B20207F
:1026E0002020202000302E3530204B20202020209C
:1026F0002000312E3030204B20202020202000418F
:102700006C6C6F776564202020202000426C6F6322
:102710006B65642020202020004F4646202020208A
:10272000202020202000456E61626C6564202020FE
:1027300020200049636F6E202020202020202000D0
:1027400050657263656E74616765202000536F6C1D
:10275000696420202020202020005365676D656E6D
:10276000746564202020004F6666202020202020F1
:10277000202020002B323030204D687A202020206D
:10278000002B343030204D687A20202020002B365A
:102790003030204D687A20202020002B3830302027
:1027A0004D687A202020200044656661756C742095
:1027B00020202020003433332E323530204D687AEB
:1027C000200044656661756C742020202020005331
:1027D00077697463682056464F73200053696E67AB
:1027E0006C6520505454202000550020009004FFB8
:1027F000E4F0900709E06021146022900479E0B4CD
:102800001A04E4F08013B413109000B8E06004746C
:102810001A80027413900479F0900479229000B821
:10282000E0F5F0900479E0B41307F8E5F0700E805D
:1028300008B41A05F8E5F06004900479229004FECB
:10284000E8F09004797410F0229007A0743FF07FB4
:102850003912F16E900794EDF0A3EBF07F3812F18E
:102860006E900796EDF0A3EBF07B20120D13120D86
:1028700050DBF822F5F0C39458400375F0582274E9
:1028800058C395F0227550007551007B207D607F04
:102890000012D4A922B40E0122B40C03120D33B4D9
:1028A0000D03120D50802C118512EF949007A0E0BB
:1028B00004543FF07012790778947B077A90120CD9
:1028C000FD78967A92120CFD12F508900479E0607A
:1028D0000280C2900790E0FDA3E0FB7F3912E6A3DF
:1028E000900792E0FDA3E0FB7F3812E6A37F307DE6
:1028F000007B0012E6A37F307DBF7BF112E6A37858
:10290000A079FFD9FED8FA7F6512C8759002F6E06B
:10291000547F1174117F231174117FC0E07550FF33
:102920007551FFF54EF5F0C39440500375518FE596
:10293000F0754F609007A0E0B420067550FA75510D
:10294000AF23F54D0404F55212F78AD0E07550001C
:1029500075510085004EF54F9007A0E023F54D041A
:0E29600004F55212F78A120D13120D2E01A962
:03E42B00020000EC
:038AB60012F10EAC
:01DF280032C6
:0171630032F9
:01F7FF000009
:0830B8007F007EF47D5E7C01C7
:086A22007F007EF47D5E7C0123
:0879B3007F007EF47D5E7C0183
:0679CC007EF47D5E7C01EB
:0354EA0012F06558
:027CA50000805D
:027CB80000804A
:0280DC00008022
:0280EF0000800F
:0A067600554C6F7720506F776572C6
:0374B00012F07C5B
:036C8D0012F04FB3
:0386A600120D6949
:0186A5000DC7
:0186B900615F
:0142AD000D03
:0142C100619B
:0342AE00120DA648
:03834A0000000030
:018358002DF7
:01836D002DE2
:018363001801
:03836E0002F03BDF
:10F03B00C071853E517B067D117F0075710112F702
:10F04B000ED071229007797401F0900708E06006EA
:10F05B009007787401F09003DD22F89002C2E02053
:10F06B00E609900779E07003E88001E4F534026962
:10F07B00E930E6079027E9AA83A982854E532290AF
:10F08B000705E070030299A5900A06E0F5F0900AD7
:10F09B0007E0F8E5F0940C0303F5F0E80303543FA5
:10F0AB0045F0F5F0C39432400C94A740107554F51D
:10F0BB0075555F800E7554FF75555580067554FF59
:10F0CB007555FFE5F075F00AA4ABF075F00AA4C016
:10F0DB00F0900900741AF0EB7D6611F4D0E07D6EB0
:10F0EB0011F4740A7D7611F422902589A982AA83E2
:10F0FB0023C339F9E43AFA7BFF900900E0F5531288
:10F10B00AECD2212DB26C2AFD2B312EF9443DF0295
:10F11B007F9112EB14E5DDFF12EB14E5DCFF12EB34
:10F12B001480E7C0E0900702E0602FD0F0C0E090C1
:10F13B0004657402F09004A37407F090014BE05443
:10F14B000F4470F0D0E01490256475F004A4C3351F
:10F15B0082F582E5833400F58322D0E025E025E0BB
:10F16B00022A3D9002F5E0C0E0A3E0C0E09002C3AC
:10F17B00E0C0E09002E5E0C0E012C8759002F5E057
:10F18B00FDA3E0FB9002E5D0E0F09002C3D0E0F0ED
:10F19B009002F6D0E0F09002F5D0E0F0229007500C
:10F1AB007401F07550FF7551FF7B017D0F7F0012CD
:10F1BB00D4A9C269E40283377544F075453F12CD7B
:10F1CB00142285374315437544FF75452212CD1420
:10F1DB00227F6812F16EED548070047F0280317FC4
:10F1EB006912F16EED548070047F0180239006004C
:10F1FB00E0601C900600E4F090255EAA83A9827B58
:10F20B00FF7D607543667544EF7545EF12CD142293
:10F21B00900600EFF0EDBF011A540F900601F0A31A
:10F22B00EBF07F6A12F16E900603ED540FF0A3EB37
:10F23B00F08009541F900601F0A3EBF0900600E05C
:10F24B00B40202800A41B5EBC398FBED99FD229005
:10F25B000602E0FB900601E0FD7905784E515279EC
:10F26B0000C2F0902400E582C335F0F582740035BE
:10F27B0083F583E493F85152400805F0E5F0B4327E
:10F28B00E222E5F075F006A4902432C33582F582B4
:10F29B00E5F03583F583AA83A9827BFF7D607543F7
:10F2AB00667544EF7545EF12CD1422900750E06060
:10F2BB0011E4F07550007551007B087D107F001232
:10F2CB00D4A9025E73900701E0700790014AE054E5
:10F2DB00EFF0E52530E1D4E52730E3E6C2E3F5278F
:10F2EB00900703E070028003025E15900704E06054
:10F2FB00099004FFE0700312F1DC7F6512F16EEBF5
:10F30B00547FF5F07465C395F05001E4C0E07F675E
:10F31B0012F16EED5401F9D0E0F889F0EBC33850DF
:10F32B000205F030F10574FF75F00154FE0330F067
:10F33B0002448094325001E4900750F0F5517B0663
:10F34B007D117F00C07175710012F70ED071025ED6
:10F35B0015900707E060028008900778E070026163
:10F36B00ECBF39068D778B768007BF38748D758B24
:10F37B0074900778E0702E900707E014601C1460FF
:10F38B002F14600B757C04757BC4757AB4802A7559
:10F39B007C03757B93757A87801F757C01757B3138
:10F3AB00757A2D8014757C00757B0E757A27800914
:10F3BB00757C02757B62757A5AA875A976AA77C394
:10F3CB00E8357AF8E9357BF9EA357CFA754D3888FA
:10F3DB004EAB7412E6A77F39EAFDE9FB800302F41A
:10F3EB00598F4D900703E070F5BF4702802EBF3D4C
:10F3FB00028017BF730280028054900700E0600503
:10F40B00EB4410800254EFFB8044900700E0B40201
:10F41B0005E4FBFD80387D2A7BAB8032900700E052
:10F42B00702F8D4E12E6A77D2A7BAB7F3D8F4D8DC6
:10F43B004E12E6A77F7312F16EEB54EFFB7F738FC7
:10F44B004D8D4E12E6A712F4A0D0E0D0E0228D4EE7
:10F45B0022C0E0B401047D6780027D657B408D4E48
:10F46B0012E6A7D0E0B402067D007B0080047D2A63
:10F47B007BAB7F3D8F4D8D4E12E6A77F7312F16EE6
:10F48B00EB4410FB7F738F4D8D4E12E6A712F4A049
:10F49B00D0E0D0E0229004FFE0702D7F4712F16E98
:10F4AB00ED20E20420E0092220E10A90258080086B
:10F4BB009025868003902583AA83A98290072074C8
:10F4CB0001F0A3E9F0A3EAF022900F31E06014E41D
:10F4DB00F07D007F1A7B10753C01753D07753E0072
:10F4EB0012D8ED9004FEE06007E4F0900479F0226E
:10F4FB00B1089004797005900777E4F0225380F0FF
:10F50B00026E2B9004FFE0600714602C90047922AC
:10F51B00900479E0B413028011B4121B1228491223
:10F52B0028A7900479740EF0800D9004FF7401F0FD
:10F53B0012F5B8D0E0D0E022900777E0600280F3BC
:10F54B007401F0900479E0B40E099004FFE4F0909C
:10F55B00047922B40C0674FFB188801CB40D0674B8
:10F56B0001B1888013B40B10900E10E004B40A01A3
:10F57B00E4900E10F012F5B8D0E0D0E022F5F09048
:10F58B000E00E0FA900E04E0F9900E06E0C335F0A1
:10F59B00B4FF04E914800689F0B5F001E475830724
:10F5AB008A82F0EAB1B8900F317401F022755000E5
:10F5BB007551007B8C7D147F0012D4A9900E10E046
:10F5CB00FF9025A275F012A4C33582F582E5F035C4
:10F5DB0083F583E493F9A3E493F8A3E493FAA3AC40
:10F5EB0083AB827583078F82E0FDC39A4003E4FDF2
:10F5FB00F0900E00EFF0A3ECF0A3EBF0A3EAF0A376
:10F60B00F0A3EDF0A3F0A3E9F0A3E8F0A37420F0CE
:10F61B00900E01E0FAA3E0F97BFF7554FF7555FFDF
:10F62B007D0075531C12AECD900E03E070012214B9
:10F63B00F0900E05E0C0E014F0900E04E0C39406C9
:10F64B00404B900E07E0FAA3E0F9C3340DF05006DF
:10F65B00900E07E004F0900E09E0C3240AF0F54386
:10F66B00C0E07BFF7544FF7545FF7D1412CD14D0B0
:10F67B00E0F543D0E070B17BFF7544FF7545FF7D2E
:10F68B000290259FAA83A98212CD14C133900E0735
:10F69B00E0FAA3E0F9C3340DF05006900E07E00436
:10F6AB00F0900E09E0C32410F0F553C0E07BFF751A
:10F6BB0054FF7555FF7D1412AECDD0E0F553D0E05D
:10F6CB0070147BFF7554FF7555FF7D0290259FAA23
:10F6DB0083A98212AECDC133227F2A12EECCE54D27
:10F6EB002420FF12EF7EE54D2420FF12EF7E7F2BAF
:10F6FB0012EECCAF4E12EF7EAF4E12EF7E7F2C127E
:10F70B00EECC228F4D8D4E8B4FD1E4E4F552E5526A
:10F71B00C2D7954F5068854D53755000E553A8508F
:10F72B00B80302801BB44F03755001B42C03755002
:10F73B00028571F030F003755001B551037550031C
:10F74B00C2D794805034900706E06005E55320E162
:10F75B000CE571E550600C14601514600C7F007D96
:10F76B000080107FF07D3F800A7FFF7D0F80047F3C
:10F77B00FF7D8812ED07055380A20552809022D1A0
:10F78B00E4E54EC3954F501A854D53E553C2D795BB
:10F79B0052500BAD51AF5012ED07055380ED054E96
:03F7AB0080DD22DC
:00000001FF
