:04E6A30012F08400ED
:01CF6B0022A3
:10F03B0030B305D2B502CF6BC2B502CF6BE599F0F9
:10F04B008EF0C0F0FF12EB14D0F0AEF022E531C021
:10F05B00E07F9812EB14D0E0C0E0FF12EB14D0E08D
:10F06B00FF22EFC0E07F9912EB14D0E0C0E0FF125B
:10F07B00EB14D0E0FF8F4DE422900800E070247475
:10F08B0001F0E4F5357534E1F533F5327F10FE12FE
:10F09B00DB26E4753580753425F533F5327F30FE8C
:10F0AB0012DDF99002C3EFF09002C1EDF09002BFB8
:10F0BB00EBF07F9112EB149002C3E0FF12EB149074
:10F0CB0002C1E0FF12EB149002BFE0FF12EB1490B1
:10F0DB0002C3E0FF9002C1E0FD9002BFE0FB8F4D49
:05F0EB008D4E02E6A7B6
:00000001FF
