:1080B10075F003A434044440FB7DE97F7D0000009A
:027C31008006CB
:027C2800800FCB
:035DE70002F28E37
:036DC00002EFD00F
:03A7590012F09566
:03B3760012F0953D
:03C05F0012F01DBF
:03C4690012F01DB1
:04E6380012F1E600F5
:10EFD0005380F0126DC39004FEE09004786017F047
:10EFE000E5EA30E01153EAFE7F0712EAA9E4900453
:10EFF000FEF0900478F0E0B413028013B41A02809B
:10F000000E9004FCE06015E4F07FF012EAA9229073
:10F0100004FCE0700704F07FF112EAA92290047D5D
:10F02000E0B4560122D083D082605C146024146066
:10F030003B146001227F9A12EAA9C283C282E0A334
:10F04000C082C083FF12EAA9D083D082E583B405D1
:10F05000ED227F9912EAA990047EE0F5F090047FFA
:10F06000E085F083F582E0FF12EAA92290047EE0B9
:10F07000F5F090047FE0F8900480E085F0838882CA
:10F08000F07F0712EAA92290047EE09004FEF07F50
:10F090000712EAA92212E90E9004A0E06F046001B1
:10F0A00022D083D082900480E0600A14600914604A
:10F0B0000814600722213221482121127CE17FB50A
:10F0C00012EAA9900480A3E582B49D0122E0FDA389
:10F0D000E0FB7F39C083C08212E638D082D083A3A0
:10F0E000E0FDA3E0FB7F38C083C08212E6387F30AA
:10F0F0007D007B0012E6387F307DBF7BF112E63861
:10F1000078FFC374FF00940150FBD8F67F6512C8E6
:10F11000009002F6E0547FFF12EAA9D082D08380EB
:10F12000A5A3E05480F5F09004FFE0547F45F0F093
:10F13000800FA3E05403F5F09004FFE054FC45F089
:10F14000F07F0712EAA92222127CE17FB412EAA919
:10F15000900487E0FF12EAA912E638900487E06085
:10F16000E614F0900483E0FDA3E0FB7F3812E6385C
:10F17000900481E0FDA3E0FB7F3912E6387F307D0B
:10F18000007B0012E6387F307DBF7BF112E63878D5
:10F1900040C374FF00940150FBD8F67F6712C8008B
:10F1A0009002F5E0540103F5F0A3E054FE0345F0AE
:10F1B000FF12EAA9C3900481E0F8A3E0F9A3E0FA02
:10F1C000A3E0FBA3E0FCA3E0C33BFBEC3AFAE93489
:10F1D00000F9E83400F8900481E8F0A3E9F0A3EA2C
:10F1E000F0A3EBF0215B8F4DBF47028041BF3D0292
:10F1F000802EBF3902801DBF7302800280389004C8
:10F20000FFE054036030B40305EB54EF8003EB449C
:10F2100010FB80229004FFE05480601A0D0D8016D0
:10F220009004FFE05403B4020DE4FBFD8008900459
:10F23000FFE0540370038D4E22C0E0B401047D67EB
:10F240008009B402047D6580027D617B408D4E1291
:10F25000E63CD0E0C0E0B402067D007B0080047D87
:10F260002A7BAB7F3D8F4D8D4E12E63C7F7312C8DB
:10F27000009002F5E0FDA3E0FBD0E0B40305EB5401
:10F28000EF8003EB4410FB7F738F4D8D4E227FA4E4
:10F2900012EAA99002F6E0FF12EAA99002F5E05402
:10F2A00001FF12EAA97F6512C8009002F6E0547FC0
:0FF2B000FF12EAA97F6712C8009002F5025DEA1B
:00000001FF
