:0A69010044474A4D505356595C5F5D
:017F7100E926
:017F73007D90
:056AF1000000000000A0
:027C3B008006C1
:027C3200800FC1
:035DE70002F29530
:036DCA0002EFE0F5
:03A7680012F09C50
:03B3850012F09C27
:03C06E0012F02DA0
:03C4780012F02D92
:04E6470012F1ED00DF
:10EFE0005380F0126DCD9004FEE09004786017F02D
:10EFF000E5EA30E01153EAFE7F0712EAB8E4900434
:10F00000FEF0900478F0E0B413028013B41A02808A
:10F010000E9004FCE06015E4F07FF012EAB8229054
:10F0200004FCE0700704F07FF112EAB82290047D3E
:10F03000E0B4560122D083D082605314601B146068
:10F0400032146001227F9A12EAB8900000E0FF12A9
:10F05000EAB8A3E583B405F5227F9912EAB89004D3
:10F060007EE0F5F090047FE085F083F582E0FF120A
:10F07000EAB82290047EE0F5F090047FE0F8900476
:10F0800080E085F0838882F07F0712EAB82290043E
:10F090007EE09004FEF07F0712EAB82212E91D908C
:10F0A00004A0E06F04600122D083D082900480E04D
:10F0B000600A146009146008146007222139214F86
:10F0C0002128127CEB7FB512EAB8900480A3E58278
:10F0D000B49D0122E0FDA3E0FB7F39C083C0821212
:10F0E000E647D082D083A3E0FDA3E0FB7F38C08356
:10F0F000C08212E6477F307D007B0012E6477F30FA
:10F100007DBF7BF112E64778FFC374FF0094015086
:10F11000FBD8F67F6512C80F9002F6E0547FFF120D
:10F12000EAB8D082D08380A5A3E05480F5F09004A3
:10F13000FFE0547F45F0F0800FA3E05403F5F0901A
:10F1400004FFE054FC45F0F07F0712EAB8222212D7
:10F150007CEB7FB412EAB8900487E0FF12EAB812A1
:10F16000E647900487E060E614F0900483E0FDA396
:10F17000E0FB7F3812E647900481E0FDA3E0FB7FCF
:10F180003912E6477F307D007B0012E6477F307DF5
:10F19000BF7BF112E6477840C374FF00940150FB37
:10F1A000D8F67F6712C80F9002F5E0540103F5F01E
:10F1B000A3E054FE0345F0FF12EAB8C3900481E0D7
:10F1C000F8A3E0F9A3E0FAA3E0FBA3E0FCA3E0C30B
:10F1D0003BFBEC3AFAE93400F9E83400F89004819A
:10F1E000E8F0A3E9F0A3EAF0A3EBF021628F4DBFB2
:10F1F00047028041BF3D02802EBF3902801DBF7390
:10F2000002800280389004FFE054036030B40305AC
:10F21000EB54EF8003EB4410FB80229004FFE0549A
:10F2200080601A0D0D80169004FFE05403B4020DA7
:10F23000E4FBFD80089004FFE0540370038D4E2230
:10F24000C0E0B401047D678009B402047D658002DA
:10F250007D617B408D4E12E64BD0E0C0E0B40206EB
:10F260007D007B0080047D2A7BAB7F3D8F4D8D4EE2
:10F2700012E64B7F7312C80F9002F5E0FDA3E0FB8E
:10F28000D0E0B40305EB54EF8003EB4410FB7F7335
:10F290008F4D8D4E227FA412EAB89002F6E0FF1245
:10F2A000EAB89002F5E05401FF12EAB87F6512C88F
:10F2B0000F9002F6E0547FFF12EAB87F6712C80F82
:06F2C0009002F5025DEA78
:00000001FF
