:027C31008006CB
:027C2800800FCB
:035DE70002F16462
:036DC00002EFD00F
:03A7590012F03AC1
:03B3760012F03A98
:03C05F0012F01DBF
:03C4690012F01DB1
:04E6380012F11C00BF
:10EFD0005380F0126DC39004FEE09004786017F047
:10EFE000E5EA30E01153EAFE7F0712EAA9E4900453
:10EFF000FEF0900478F0E0B413028013B41A02809B
:10F000000E9004FCE06015E4F07FF012EAA9229073
:10F0100004FCE0700704F07FF112EAA92290047D5D
:10F02000E0B4560122D083D08260012290047EE0B9
:10F030009004FEF07F0712EAA92212E90E9004A0C4
:10F04000E06F04600122D083D082900480E06018D9
:10F0500014602B14600122A3E05480F5F09004FFAB
:10F06000E0547F45F0F0800FA3E05403F5F09004E6
:10F07000FFE054FC45F0F07F0712EAA92222127C3F
:10F08000E17FB412EAA9900487E0FF12EAA912E630
:10F0900038900487E060E614F0900483E0FDA3E07C
:10F0A000FB7F3812E638900481E0FDA3E0FB7F3956
:10F0B00012E6387F307D007B0012E6387F307DBF5E
:10F0C0007BF112E6387840C374FF00940150FBD8FE
:10F0D000F67F6712C8009002F5E0540103F5F0A333
:10F0E000E054FE0345F0FF12EAA9C3900481E0F862
:10F0F000A3E0F9A3E0FAA3E0FBA3E0FCA3E0C33B99
:10F10000FBEC3AFAE93400F9E83400F8900481E8BD
:10F11000F0A3E9F0A3EAF0A3EBF001918F4DBF4714
:10F12000028022BF3D02800FBF39229004FFE054CD
:10F1300080601A0D0D80169004FFE05403B4020D98
:10F14000E4FBFD80089004FFE0540370038D4E2221
:10F150007B40B401047D6780F4B402047D6580EDDA
:10F160007D6180E97FA412EAA99002F6E0FF12EA2D
:10F17000A99002F5E05401FF12EAA97F6512C800C8
:10F180009002F6E0547FFF12EAA97F6712C8009050
:05F1900002F5025DEA3A
:00000001FF
